:020000040800F2
:1000000000800020111C0008E11B0008E31B000811
:10001000E51B0008E71B0008E91B000800000000C2
:10002000000000000000000000000000EB1B0008C2
:10003000ED1B000800000000EF1B0008F11B00088A
:10004000591C0008591C0008591C0008591C0008BC
:10005000591C0008591C0008F91B0008031C000863
:10006000591C0008591C0008591C0008591C00089C
:10007000591C0008591C0008591C0008591C00088C
:10008000591C0008591C0008591C0008591C00087C
:10009000591C0008591C0008591C0008591C00086C
:1000A000591C0008591C0008591C0008591C00085C
:1000B000591C0008591C0008591C0008591C00084C
:1000C000591C0008591C0008591C0008591C00083C
:1000D000591C0008591C0008591C0008591C00082C
:1000E000591C0008591C0008591C0008591C00081C
:1000F000591C000800000000591C0008591C000889
:100100000000000000000000591C0008591C0008F5
:10011000591C0008591C0008591C00080000000068
:10012000591C000800000000000000000000000052
:0C01300000000000000000005FF808F173
:1001400081F0004102E000BF83F0004330B54FEA88
:1001500041044FEA430594EA050F08BF90EA020FF5
:100160001FBF54EA000C55EA020C7FEA645C7FEA88
:10017000655C00F0E2804FEA5454D4EB5555B8BFAB
:100180006D420CDD2C4480EA020281EA030382EA1C
:10019000000083EA010180EA020281EA0303362DAE
:1001A00088BF30BD11F0004F4FEA01314FF4801C81
:1001B0004CEA113102D0404261EB410113F0004F93
:1001C0004FEA03334CEA133302D0524263EB43034A
:1001D00094EA050F00F0A780A4F10104D5F1200EE8
:1001E0000DDB02FA0EFC22FA05F2801841F1000143
:1001F00003FA0EF2801843FA05F359410EE0A5F117
:1002000020050EF1200E012A03FA0EFC28BF4CF047
:10021000020C43FA05F3C01851EBE37101F00045FD
:1002200007D54FF0000EDCF1000C7EEB00006EEB0A
:100230000101B1F5801F1BD3B1F5001F0CD3490894
:100240005FEA30004FEA3C0C04F101044FEA4452EB
:1002500012F5800F80F09A80BCF1004F08BF5FEA72
:10026000500C50F1000041EB045141EA050130BD52
:100270005FEA4C0C404141EB0101013C28BFB1F564
:10028000801FE9D291F0000F04BF01460020B1FAAF
:1002900081F308BF2033A3F10B03B3F120020CDA82
:1002A0000C3208DD02F1140CC2F10C0201FA0CF060
:1002B00021FA02F10CE002F11402D8BFC2F1200CC5
:1002C00001FA02F120FA0CFCDCBF41EA0C0190407B
:1002D000E41AA2BF01EB0451294330BD6FEA0404C4
:1002E0001F3C1CDA0C340EDC04F11404C4F12002AF
:1002F00020FA04F001FA02F340EA030021FA04F3C1
:1003000045EA030130BDC4F10C04C4F1200220FA17
:1003100002F001FA04F340EA0300294630BD21FA55
:1003200004F0294630BD94F0000F83F4801306BF1B
:1003300081F480110134013D4EE77FEA645C18BF0F
:100340007FEA655C29D094EA050F08BF90EA020FA6
:1003500005D054EA000C04BF1946104630BD91EA9E
:10036000030F1EBF0021002030BD5FEA545C05D1A1
:100370004000494128BF41F0004130BD14F58004E0
:100380003CBF01F5801130BD01F0004545F0FE4154
:1003900041F470014FF0000030BD7FEA645C1ABF89
:1003A000194610467FEA655C1CBF0B46024650EAC0
:1003B000013406BF52EA033591EA030F41F40021EC
:1003C00030BD00BF90F0000F04BF0021704730B572
:1003D0004FF4806404F132044FF000054FF0000147
:1003E00050E700BF90F0000F04BF0021704730B508
:1003F0004FF4806404F1320410F0004548BF4042DD
:100400004FF000013EE700BF42004FEAE2014FEA31
:1004100031014FEA02701FBF12F07F4393F07F4F0C
:1004200081F06051704732F07F4208BF704793F00F
:100430007F4F04BF41F40021704730B54FF4607422
:1004400001F0004521F000411CE700BF50EA010225
:1004500008BF704730B54FF000050AE050EA0102CE
:1004600008BF704730B511F0004502D5404261EB3E
:1004700041014FF4806404F132045FEA915C3FF47F
:10048000D8AE4FF003025FEADC0C18BF03325FEA1C
:10049000DC0C18BF033202EBDC02C2F1200300FACD
:1004A00003FC20FA02F001FA03FE40EA0E0021FAF2
:1004B00002F11444BDE600BF4FEA4102B2F1E0434D
:1004C00024BFB3F5001CDCF1FE5C0DD901F0004C3B
:1004D0004FEAC0024CEA5070B2F1004F40EB83008B
:1004E00008BF20F00100704711F0804F21D113F1B7
:1004F0003872BCBF01F00040704741F480114FEAF0
:100500005252C2F11802C2F1200C10FA0CF320FA78
:1005100002F018BF40F001004FEAC1234FEAD32395
:1005200003FA0CFC40EA0C0023FA02F34FEA4303FF
:10053000CCE77FEA625307D150EA01331EBF4FF088
:10054000FE4040F44000704701F0004040F0FE40A3
:1005500040F40000704700BF80F0004002E000BFA0
:1005600081F0004142001FBF5FEA410392EA030F9E
:100570007FEA226C7FEA236C6AD04FEA1262D2EBE8
:100580001363C1BFD218414048404140B8BF5B42ED
:10059000192B88BF704710F0004F40F4000020F086
:1005A0007F4018BF404211F0004F41F4000121F09C
:1005B0007F4118BF494292EA030F3FD0A2F10102E6
:1005C00041FA03FC10EB0C00C3F1200301FA03F124
:1005D00000F0004302D5494260EB4000B0F5000F47
:1005E00013D3B0F1807F06D340084FEA310102F106
:1005F0000102FE2A51D2B1F1004F40EBC25008BFB8
:1006000020F0010040EA03007047490040EB000081
:10061000013A28BFB0F5000FEDD2B0FA80FCACF182
:10062000080CB2EB0C0200FA0CF0AABF00EBC250AF
:1006300052421843BCBFD0401843704792F0000F9D
:1006400081F4000106BF80F400000132013BB5E7F0
:100650004FEA41037FEA226C18BF7FEA236C21D066
:1006600092EA030F04D092F0000F08BF08467047CB
:1006700090EA010F1CBF0020704712F07F4F04D199
:10068000400028BF40F00040704712F100723CBFAC
:1006900000F50000704700F0004343F0FE4040F4D6
:1006A000000070477FEA226216BF08467FEA236394
:1006B0000146420206BF5FEA412390EA010F40F47F
:1006C000800070474FF0000304E000BF10F00043CB
:1006D00048BF40425FEA000C08BF704743F09643B2
:1006E00001464FF000001CE050EA010208BF7047CD
:1006F0004FF000030AE000BF50EA010208BF704754
:1007000011F0004302D5404261EB41015FEA010C68
:1007100002BF84460146002043F0B64308BFA3F160
:100720008053A3F50003BCFA8CF2083AA3EBC25342
:1007300010DB01FA02FC634400FA02FCC2F1200261
:10074000BCF1004F20FA02F243EB020008BF20F098
:100750000100704702F1200201FA02FCC2F12002FE
:1007600050EA4C0021FA02F243EB020008BF20EAF3
:10077000DC7070474FF0FF0C1CEAD0521EBF1CEA21
:10078000D15392EA0C0F93EA0C0F6FD01A4480EA0F
:10079000010C400218BF5FEA41211ED04FF00063F8
:1007A00043EA501043EA5111A0FB01310CF0004024
:1007B000B1F5000F3EBF490041EAD3715B0040EA4A
:1007C000010062F17F02FD2A1DD8B3F1004F40EB1A
:1007D000C25008BF20F00100704790F0000F0CF0ED
:1007E000004C08BF49024CEA502040EA51207F3AB1
:1007F000C2BFD2F1FF0340EAC250704740F400008C
:100800004FF00003013A5DDC12F1190FDCBF00F07C
:1008100000407047C2F10002410021FA02F1C2F12A
:10082000200200FA02FC5FEA310040F1000053EAC6
:100830004C0308BF20EADC70704792F0000F00F014
:10084000004C02BF400010F4000F013AF9D040EA1A
:100850000C0093F0000F01F0004C02BF490011F4AE
:10086000000F013BF9D041EA0C018FE70CEAD153AC
:1008700092EA0C0F18BF93EA0C0F0AD030F0004C2C
:1008800018BF31F0004CD8D180EA010000F00040E0
:10089000704790F0000F17BF90F0004F084691F09E
:1008A000000F91F0004F14D092EA0C0F01D14202D8
:1008B0000FD193EA0C0F03D14B0218BF084608D1A1
:1008C00080EA010000F0004040F0FE4040F40000EB
:1008D000704740F0FE4040F4400070474FF0FF0C7E
:1008E0001CEAD0521EBF1CEAD15392EA0C0F93EAC5
:1008F0000C0F69D0A2EB030280EA010C49024FEA17
:10090000402037D04FF0805343EA111143EA1013CF
:100910000CF000408B4238BF5B0042F17D024FF487
:10092000000C8B4224BF5B1A40EA0C00B3EB510F62
:1009300024BFA3EB510340EA5C00B3EB910F24BF4B
:10094000A3EB910340EA9C00B3EBD10F24BFA3EBD0
:10095000D10340EADC001B0118BF5FEA1C1CE0D198
:10096000FD2A3FF650AF8B4240EBC25008BF20F04B
:10097000010070470CF0004C4CEA50207F32C2BF9F
:10098000D2F1FF0340EAC250704740F400004FF03C
:100990000003013A37E792F0000F00F0004C02BF6D
:1009A000400010F4000F013AF9D040EA0C0093F037
:1009B000000F01F0004C02BF490011F4000F013B91
:1009C000F9D041EA0C0195E70CEAD15392EA0C0FF9
:1009D00008D142027FF47DAF93EA0C0F7FF470AF31
:1009E000084676E793EA0C0F04D14B023FF44CAF74
:1009F00008466EE730F0004C18BF31F0004CCAD109
:100A000030F000427FF45CAF31F000437FF43CAF44
:100A10005FE700BF4FF0FF3C06E000BF4FF0010C66
:100A200002E000BF4FF0010C4DF804CD4FEA400248
:100A30004FEA41037FEA226C18BF7FEA236C11D092
:100A400001B052EA530C18BF90EA010F58BFB2EB45
:100A5000030088BFC81738BF6FEAE17018BF40F0C5
:100A6000010070477FEA226C02D15FEA402C05D179
:100A70007FEA236CE4D15FEA412CE1D05DF8040BFE
:100A8000704700BF844608466146FFE70FB5FFF791
:100A9000C9FF002848BF10F1000F0FBD4DF808ED49
:100AA000FFF7F4FF0CBF012000205DF808FB00BF3A
:100AB0004DF808EDFFF7EAFF34BF012000205DF894
:100AC00008FB00BF4DF808EDFFF7E0FF94BF0120E1
:100AD00000205DF808FB00BF4DF808EDFFF7D2FFDE
:100AE00094BF012000205DF808FB00BF4DF808ED21
:100AF000FFF7C8FF34BF012000205DF808FB00BFEE
:100B00004FEA4002B2F1FE4F0FD34FF09E03B3EB1A
:100B100012620DD94FEA002343F0004310F0004F5A
:100B200023FA02F018BF404270474FF000007047B0
:100B300012F1610F01D1420205D110F0004008BF4F
:100B40006FF0004070474FF00000704753B94AB94A
:100B5000002908BF00281CBF4FF0FF314FF0FF30C5
:100B600000F00CB8ADF1080C6DE904CE03F038F9D3
:100B7000DDF804E0DDE9022304B07047704700BFF0
:100B800070B54FF0FF0C4CF4E06C1CEA11541DBF23
:100B90001CEA135594EA0C0F95EA0C0F00F0DEF8EE
:100BA0002C4481EA030621EA4C5123EA4C5350EAD3
:100BB000013518BF52EA033541F4801143F4801324
:100BC00038D0A0FB02CE4FF00005E1FB02E506F0B5
:100BD0000042E0FB03E54FF00006E1FB03569CF00A
:100BE000000F18BF4EF0010EA4F1FF04B6F5007F10
:100BF00064F5407404D25FEA4E0E6D4146EB060682
:100C000042EAC62141EA55514FEAC52040EA5E500A
:100C10004FEACE2EB4F1FD0C88BFBCF5E06F1ED8B4
:100C2000BEF1004F08BF5FEA500E50F1000041EBEB
:100C3000045170BD06F0004646EA010140EA020098
:100C400081EA0301B4EB5C04C2BFD4EB0C0541EABA
:100C5000045170BD41F480114FF0000E013C00F3CF
:100C6000AB8014F1360FDEBF002001F0004170BDF3
:100C7000C4F10004203C35DA0C341BDC04F114040C
:100C8000C4F1200500FA05F320FA04F001FA05F298
:100C900040EA020001F0004221F0004110EBD37065
:100CA00021FA04F642EB06015EEA430E08BF20EA91
:100CB000D37070BDC4F10C04C4F1200500FA04F334
:100CC00020FA05F001FA04F240EA020001F00041C6
:100CD00010EBD37041F100015EEA430E08BF20EA39
:100CE000D37070BDC4F1200500FA05F24EEA020E81
:100CF00020FA04F301FA05F243EA020321FA04F0B0
:100D000001F0004121FA04F220EA020000EBD37066
:100D10005EEA430E08BF20EAD37070BD94F0000F66
:100D20000FD101F00046400041EB010111F4801F9A
:100D300008BF013CF7D041EA060195F0000F18BF4B
:100D4000704703F00046520043EB030313F4801F87
:100D500008BF013DF7D043EA0603704794EA0C0F41
:100D60000CEA135518BF95EA0C0F0CD050EA410657
:100D700018BF52EA4306D1D181EA030101F00041D4
:100D80004FF0000070BD50EA410606BF10461946FC
:100D900052EA430619D094EA0C0F02D150EA013608
:100DA00013D195EA0C0F05D152EA03361CBF104649
:100DB00019460AD181EA030101F0004141F0FE41E8
:100DC00041F470014FF0000070BD41F0FE4141F46C
:100DD000780170BD70B54FF0FF0C4CF4E06C1CEA6C
:100DE00011541DBF1CEA135594EA0C0F95EA0C0F21
:100DF00000F0A7F8A4EB050481EA030E52EA0335DC
:100E00004FEA013100F088804FEA03334FF08055FC
:100E100045EA131343EA12634FEA022245EA111529
:100E200045EA10654FEA00260EF000419D4208BFDA
:100E3000964244F1FD0404F5407402D25B084FEA87
:100E40003202B61A65EB03055B084FEA32024FF433
:100E500080104FF4002CB6EB020E75EB030E22BF90
:100E6000B61A754640EA0C005B084FEA3202B6EB50
:100E7000020E75EB030E22BFB61A754640EA5C00FF
:100E80005B084FEA3202B6EB020E75EB030E22BF8F
:100E9000B61A754640EA9C005B084FEA3202B6EB90
:100EA000020E75EB030E22BFB61A754640EADC004F
:100EB00055EA060E18D04FEA051545EA16754FEAB1
:100EC00006164FEAC30343EA52734FEAC2025FEACF
:100ED0001C1CC0D111F4801F0BD141EA00014FF05E
:100EE00000004FF0004CB6E711F4801F04BF01432F
:100EF0000020B4F1FD0C88BFBCF5E06F3FF6AFAE4B
:100F0000B5EB030C04BFB6EB020C5FEA500C50F1DA
:100F1000000041EB045170BD0EF0004E4EEA11315D
:100F200014EB5C04C2BFD4EB0C0541EA045170BD64
:100F300041F480114FF0000E013C90E645EA060EA8
:100F40008DE60CEA135594EA0C0F08BF95EA0C0FD6
:100F50003FF43BAF94EA0C0F0AD150EA01347FF41E
:100F600034AF95EA0C0F7FF425AF104619462CE7F5
:100F700095EA0C0F06D152EA03353FF4FDAE104658
:100F8000194622E750EA410618BF52EA43067FF4A9
:100F9000C5AE50EA41047FF40DAF52EA43057FF439
:100FA000EBAE12E74FF0FF3C06E000BF4FF0010C44
:100FB00002E000BF4FF0010C4DF804CD4FEA410CA8
:100FC0007FEA6C5C4FEA430C18BF7FEA6C5C1BD075
:100FD00001B050EA410C0CBF52EA430C91EA030FF6
:100FE00002BF90EA020F0020704710F1000F91EA53
:100FF000030F58BF994208BF90422CBFD8176FEA21
:10100000E37040F0010070474FEA410C7FEA6C5CEE
:1010100002D150EA013C07D14FEA430C7FEA6C5CF5
:10102000D6D152EA033CD3D05DF8040B704700BF21
:101030008446104662468C461946634600E000BF6F
:1010400001B5FFF7B7FF002848BF10F1000F01BD41
:101050004DF808EDFFF7F4FF0CBF012000205DF80C
:1010600008FB00BF4DF808EDFFF7EAFF34BF012091
:1010700000205DF808FB00BF4DF808EDFFF7E0FF2A
:1010800094BF012000205DF808FB00BF4DF808ED7B
:10109000FFF7CEFF94BF012000205DF808FB00BFE2
:1010A0004DF808EDFFF7C4FF34BF012000205DF8C4
:1010B00008FB00BF4FEA410C7FEA6C5C02D150EAAA
:1010C000013C0AD14FEA430C7FEA6C5C02D152EA40
:1010D000033C02D14FF0000070474FF00100704711
:1010E00010B5054C237833B9044B13B10448AFF362
:1010F00000800123237010BD480100200000000083
:10110000C851000808B5034B1BB103490348AFF3AE
:10111000008008BD000000004C010020C8510008FC
:1011200000B587B000238DF81730322302930123D6
:1011300001930DF117020092D022EF21064801F031
:10114000A9FE9DF81730552B03D0012007B05DF89C
:1011500004FB0020FAE700BFDC01002030B58BB0B3
:10116000044604AB0025049505950695079508955A
:10117000ADF82450322202921622019200930123EC
:10118000AA22EF210E4801F085FE2A46284601E0FA
:101190000132D2B20B2A11D80AAB03EB420313F887
:1011A000181C9DF8113043EA01231BB224F81230B9
:1011B00001339BB2012BEBD80220E9E70BB030BD25
:1011C000DC01002000B587B00023ADF814300329FE
:1011D00021D8DFE801F002171A1D052343700170C2
:1011E00089018DF81510322302930223019305AB78
:1011F00000930123F422EE21084801F099FD07B085
:101200005DF804FB08234370E9E70E234370E6E72B
:101210001A234370E3E708234370E0E7DC01002072
:1012200010B5044600230360FFF77AFF84F83A0004
:101230002046FFF793FF84F83A00032104F13800B9
:10124000FFF7C0FF10BD0000F0B587B02E238DF86A
:101250001430114D322702970124019405AE0096F7
:101260002346F422EE21284601F062FD052000F01D
:101270003FFD02970223019300962346F622EF21B9
:10128000284601F007FE9DF814009DF8153043EA4A
:10129000002007B0F0BD00BFDC01002038B50446D7
:1012A0008069FFF72DFC6389C01A238903FB00F0D6
:1012B000B4F91230DB02B4F9142002EBE03293FBF4
:1012C000F2F303EBE033236308331811FFF7FEF961
:1012D0000849FFF74FFA05460749FFF7F3FB20B926
:1012E00006492846FFF7F8FB10B1032384F83A308B
:1012F000284638BDCDCCCC3D000020C20000AA421B
:10130000F0B589B0ADF8140007AD0023ADF81C307E
:101310008DF81E3034238DF81C30164E322702977C
:101320000124019400952346F422EE21304601F079
:10133000FFFC9DF8150000F0DBFC029703230193EE
:1013400000952346F622EF21304601F0A3FD9DF8DB
:101350001C209DF81D301B0203EB02439DF81E204C
:1013600013449DF81400C0F1080043FA00F009B0DE
:10137000F0BD00BFDC01002084B08DE80F000C9BA5
:10138000A3F57A6CBDF90E300CFB0CF0002858DB8D
:10139000001300FB03F3002B56DBDB12BDF9022028
:1013A0000CFB02F2002A52DB03EBE223BDF9002022
:1013B00003EB82039DF838108B4002334AD49A1015
:1013C000BDF904300CFB03F3002B45DB5B13BDF9C7
:1013D0000CC00CFB00F0002842DB03EB204302337F
:1013E00042D49B10BDF8060003F5004300FB03F355
:1013F000DB0B0798801A4CF250320A4102FB00F0D6
:10140000002833DB4000B0FBF3F00346002831DB5B
:101410001B1203FB03F340F6DE3202FB03F3002B47
:101420002BDB1B141A4A00FB02F2002A29DB03EB18
:10143000224303F6CF63002B27DB00EB231004B01D
:10144000704700F6FF70A3E703F2FF73A5E702F20F
:10145000FF72A9E70333B2E703F5FF531F33B5E784
:1014600000F57F40FF30B8E70333BAE7B0FBF3F095
:101470004000CAE700F1FF03CAE703F57F43FF33EB
:10148000CFE702F57F42FF32D1E70F33D5E700BF48
:1014900043E3FFFF0000000038B50446C06AFFF7D1
:1014A00015F91749FFF71AFAFEF7AEFF10A3D3E9B3
:1014B000002302F0CBFE02460B4600201149FEF746
:1014C00043FE0DA3D3E90023FFF75AFBFEF7F4FF19
:1014D00005460D49FFF7F6FA20B90C492846FFF7F3
:1014E000FBFA10B1052384F83A30284638BD00BF16
:1014F0006C45D9CC955BC83F0000000040A5E54095
:1015000080E6C5470000F03F0000FAC300A00C468B
:1015100010B584B0044600238DF80F306423009387
:1015200001230DF10F029021006801F0C7F9F0B915
:1015300064230093022303AA9021206801F07AFA21
:10154000C0B99DF80C209DF90C30002B06DB9DF8EE
:101550000D3043EA02235B11A38009E09DF80D30B2
:1015600043EA0223A3F580335B11A38000E0FF2050
:1015700004B010BDFF20FBE7400000F0FE00704704
:1015800008B5006801F0F8FD08BD38B5044601292A
:1015900005D0022906D0E1B91725052304E0062568
:1015A0000C2301E00F251823032A15D9002319461F
:1015B000043AD0B2022801D91D460846FFF7DCFFE5
:1015C00001460123AB404FF0FF322046FFF7D8FF22
:1015D00038BD00252B46E7E71146E9E7092A15D86B
:1015E000F8B506460F461546002400E00134062CE7
:1015F0000BDC074B5B5D234113F0010FF6D0E2B229
:1016000039463046FFF7C1FFF0E7F8BD704700BF2D
:10161000E0510008F8B506460D1E2BDBADB2B5F55E
:101620007A7F31D201272B4AA2FB0532C2F34F1237
:10163000C2EB422402EB8404C2EBC404A400A4B2B3
:101640002C44A4B2632D2CD897B3234AA2FB0432B6
:10165000D208C2EB4235C2EB85056D00ADB2254420
:10166000ADB2092C2AD87FB3EAB200213046FFF789
:10167000B5FFF8BD4FF080634FF0FF320221FFF756
:101680007FFF6D42ADB2CAE74FF000734FF0FF32FB
:1016900000213046FFF774FFA5F57A75ADB200273B
:1016A000C1E7D2B202213046FFF798FF0027CCE70E
:1016B000D2B202213046FFF791FFC6E7D2B2012134
:1016C0003046FFF78BFFCFE7D2B201213046FFF75C
:1016D00085FFC9E71F85EB51CDCCCCCC38B505468D
:1016E0001446FFF797FF012C00D038BD40234FF080
:1016F000FF3206212846FFF743FFF6E7F0B58BB02F
:10170000002405940694079408940994304BDA69F0
:1017100042F00402DA61DA6902F004020192019AED
:10172000DA6942F02002DA61DA6902F020020292FC
:10173000029ADA6942F00102DA61DA6902F0010222
:101740000392039ADA6942F00202DA61DB6903F07C
:1017500002030493049B1F4F22460121384600F0E8
:101760003BFC1D4E22464FF48071304600F034FCA5
:101770000125059506950794089405A9384600F0BB
:1017800043FB032305934FF488130693079505A99C
:10179000124800F039FB4FF48073059306950794C7
:1017A000089405A9304600F02FFB2246214606206A
:1017B00000F0F8FA062000F005FB2246214607203B
:1017C00000F0F0FA072000F0FDFA0BB0F0BD00BF0A
:1017D00000380240000802400004024000000240BD
:1017E00010B5044643680169586BFEF7B9FE064917
:1017F000FEF7C0FFFFF784F9012201B22068FFF76E
:101800006DFF002010BD00BF0000204108B5037B24
:10181000022B01D0002008BDFFF7E2FFFAE700002D
:1018200010B50446012802D0022C06D010BD4FF49A
:101830008071044800F0D6FBF6E70121024800F071
:10184000D1FBF3E7000402400008024072B6FEE755
:1018500008B51048104B03600023436083600C22DE
:10186000C260036143614FF440628261C3617022D0
:10187000026203638362C36201F03CFD40B9054824
:101880000268536843F00103536001F01DFD08BD79
:10189000FFF7DCFFA00100200024004008B50A4843
:1018A0000A4B03600A4B436000238360C3604FF41C
:1018B0008042026143618361C361036200F020FFE3
:1018C00000B908BDFFF7C2FFDC0100200054004052
:1018D000A086010000B597B03422002109A802F0CB
:1018E000D5FB002304930593069307930893019374
:1018F0000293039318490A6822F4C05242F400622A
:101900000A600522099201220A920B92129309A8F9
:1019100001F0B4FDC8B90F2304930223059390236B
:10192000069300210791089104A802F091F870B97C
:10193000032301934FF480330293039301A802F031
:1019400083F930B917B05DF804FBFFF77FFFFFF7AD
:101950007DFFFFF77BFF00BF0070004070B58EB0C9
:1019600000F0A4F9FFF7B6FFFFF7C8FEFFF770FF1E
:10197000FFF794FF394B0D93394E3A4B33603A4C95
:101980002046FFF74DFC394D0DAB2B606C600223F8
:101990002B733046FFF7BCFDFFF756FCFEF796FEB3
:1019A000A0612046FFF77AFCA062A06BFFF7A8FCBD
:1019B000E061EC4604F1100EBEE80F00ACE80F0049
:1019C000BEE80F00ACE80F009EE807008CE80700B7
:1019D00094E80F00FFF7D0FCE0622046FFF75CFDC3
:1019E000606328611E48FFF793FDFFF72DFC1E4C36
:1019F000FEF76CFEA0612046FFF750FCA062A06BD2
:101A0000FFF77EFCE061EC4604F1100EBEE80F002B
:101A1000ACE80F00BEE80F00ACE80F009EE807003E
:101A20008CE8070094E80F00FFF7A6FCE062204670
:101A3000FFF732FD6063094C204601F008FC0B48BB
:101A4000FFF7E4FE204601F0DCFBC82000F050F96F
:101A50004FF48071064800F0C5FAC3E7A0010020EA
:101A600044020020DC01002064010020300200203C
:101A70000004024084B00F4B5A6A42F000425A629E
:101A80005A6A02F000420192019A1A6A42F0010277
:101A90001A621A6A02F001020292029A5A6A42F02B
:101AA00080525A625B6A03F080530393039B04B035
:101AB000704700BF0038024010B588B00023039380
:101AC00004930593069307930268124B9A4201D040
:101AD00008B010BD104CE36943F00203E361E36911
:101AE00003F002030193019BC02303931223049389
:101AF000032306930423079303A9084800F084F9FD
:101B0000636A43F400136362636A03F4001302938D
:101B1000029BDDE700540040003802400004024010
:101B200070B58AB000230593069307930893099331
:101B30000268274B9A4201D00AB070BD03F5053305
:101B40005A6A42F400725A625A6A02F400720192AE
:101B5000019ADA6942F00102DA61DA6902F00102FF
:101B60000292029ADA6942F00402DA61DA6902F05A
:101B700004020392039ADA6942F00202DA61DB6935
:101B800003F002030493049B40F20C7305930226B6
:101B900006960B25099505A90E4800F035F94FF476
:101BA0007C7305930696002407940894099505A96B
:101BB000094800F029F94FF203230593069607948C
:101BC0000894099505A9054800F01EF9B4E700BF7F
:101BD00000240040000002400008024000040240CF
:101BE000FEE7FEE7FEE7FEE7FEE770477047704757
:101BF00008B500F06BF808BD08B5012000F0FCF94D
:101C000008BD08B5022000F0F7F908BD70470000D4
:101C1000FFF7FCFF0B480C490C4A002302E0D458A4
:101C2000C4500433C4188C42F9D3094A094C002328
:101C300001E013600432A242FBD302F07DFAFFF709
:101C40008DFE70470000002048010020245200084B
:101C50004801002020050020FEE70000104B1B6813
:101C60000BB90120704710B504464FF47A70B0FBF1
:101C7000F3F30C4A1068B0FBF3F000F0B1F868B968
:101C80000F2C01D901200AE0002221464FF0FF303D
:101C900000F088F8044B1C60002000E0012010BD1B
:101CA00004000020000000200800002010B50320E0
:101CB00000F066F80F20FFF7D1FF10B10124204695
:101CC00010BD0446FFF7D6FEF9E70000034A13688B
:101CD000034909680B441360704700BF4C020020A1
:101CE00004000020014B1868704700BF4C02002020
:101CF00038B50446FFF7F6FF0546B4F1FF3F02D0C2
:101D0000044B1B681C44FFF7EDFF401BA042FAD3B5
:101D100038BD00BF04000020002808DB0901C9B25B
:101D200000F1604000F5614080F80013704700F05A
:101D30000F000901C9B2014B1954704714ED00E0BE
:101D400000B500F00700C0F1070CBCF1040F28BF7C
:101D50004FF0040C031D062B0FD9C31E4FF0FF3E9E
:101D60000EFA0CF021EA000199400EFA03FE22EA75
:101D70000E0241EA02005DF804FB0023EEE70000DA
:101D8000074AD36823F4E0631B041B0C000200F431
:101D9000E060034343F0BF6343F40033D360704714
:101DA00000ED00E010B50446054BD868C0F30220F2
:101DB000FFF7C6FF01462046FFF7AEFF10BD00BF8C
:101DC00000ED00E0002807DB00F01F0240090123BE
:101DD0009340024A42F82030704700BF00E100E023
:101DE0000138B0F1807F0BD24FF0E0235861054AF3
:101DF000F02182F823100020986107221A617047B1
:101E00000120704700ED00E070B582B0002365E06E
:101E100085685E000324B44025EA0405CC68B4401C
:101E20002C438460456825EA0C054C68C4F3001413
:101E30009C402C43446062E0DD08083550F82540A2
:101E400003F0070C4FEA8C0C4FF00F0E0EFA0CFE4D
:101E500024EA0E0E0C6904FA0CF444EA0E0440F86D
:101E6000254063E0042400E0002404FA0EF42C432F
:101E70000CF1020C544D45F82C40544CA568D44349
:101E800025EA0206D1F804C01CF4801F01D042EA02
:101E900005064E4DAE60ED6804EA0506D1F804C0B3
:101EA0001CF4001F01D042EA0506484DEE606D6843
:101EB00004EA0506D1F804C01CF4003F01D042EA50
:101EC0000506424D6E602D682C404E6816F4803F2A
:101ED00001D042EA05043D4A146001330A6832FA2F
:101EE00003F46FD04FF0010C0CFA03FC1CEA020261
:101EF000F3D04C6804F00304013C012C88D94C68F1
:101F000004F00304032C0CD0C4685D004FF0030CF4
:101F10000CFA05FC24EA0C0C8C68AC4044EA0C0476
:101F2000C4604C6804F00304022C85D004684FEAB6
:101F3000430E4FF0030C0CFA0EFC24EA0C0C4C6818
:101F400004F0030404FA0EF444EA0C0404604C6840
:101F500014F4403FC1D01E4C256A45F001052562AE
:101F6000246A04F001040194019C4FEA930C0CF1E3
:101F70000205154C54F8255003F0030E4FEA8E0E5F
:101F80000F2404FA0EF425EA0405124CA0423FF493
:101F90006BAF04F58064A0420ED004F58064A042CB
:101FA0000CD004F58064A0420AD004F58064A042FD
:101FB0003FF458AF052458E7012456E7022454E7BC
:101FC000032452E702B070BD00000140000401404C
:101FD00000380240000002400AB1816170470904E4
:101FE00081617047436901EA030221EA030141EA82
:101FF000024181617047000008B5054B5B690342EF
:1020000000D108BD024B5861FFF70AFCF9E700BF99
:102010000004014003685A6912F4806F01D1002066
:1020200070476FF480625A6100230363202280F8B6
:102030003D2080F83E30026C42F00402026480F8D9
:102040003C30012070472DE9F04106460C4617460A
:1020500098463BE0FFF746FE069BC01A404502D873
:10206000B8F1000F32D1012D18D033689B6924EAF2
:1020700003039BB2B3FA83F35B099F4226D100238B
:102080003363202286F83D2086F83E30326C42F0E1
:102090002002326486F83C30012027E033685B6917
:1020A00024EA03039BB2B3FA83F35B09E5E73368E1
:1020B0005B6924EA030C1FFA8CFCBCFA8CFC4FEA27
:1020C0005C1C674511D1B8F1FF3FC3D1C4F307458C
:1020D000012DECD033689B6924EA030C1FFA8CFCB9
:1020E000BCFA8CFC4FEA5C1CEBE70020BDE8F081F9
:1020F0002DE9F84305460E469046994653E01A6886
:1021000042F400721A602B686FF480625A610023F7
:102110002B63202285F83D2085F83E302A6C42F062
:1021200004022A6485F83C3001204AE0FFF7DAFD1A
:10213000A0EB0900404502D8B8F1000F33D1012FC0
:1021400017D02B689B6926EA03039BB2003B18BF9C
:10215000012343B300232B63202285F83D2085F81B
:102160003E302A6C42F020022A6485F83C3001207F
:1021700027E02B685B6926EA03039BB2003B18BF8C
:102180000123E6E72B689C6926EA0404A4B2003C1C
:1021900018BF0124A4B12B685A6912F4806FAED124
:1021A000B8F1FF3FC2D1C6F30747012FEAD12B6830
:1021B0005C6926EA0404A4B2003C18BF0124E9E7E4
:1021C0000020BDE8F8830000F0B583B004460D465A
:1021D00016461F46C36A082B0DD0012B0BD013F5F2
:1021E000803F08D0036B122B0AD10268136843F4B6
:1021F0008073136004E02268136843F480731360F3
:102200000097334600224FF001112046FFF71BFFD5
:1022100080B92369B3F5804F16D1236805F0FE0518
:102220001D613B46324613492046FFF761FFF8B96E
:1022300003B0F0BD23681B6813F4807F02D04FF415
:10224000007323640320F3E7EB11226803F0060315
:1022500043F0F00313613B46324607492046FFF73F
:1022600047FF18B92368EDB21D61DAE70120DFE707
:102270000120DDE702000100080001002DE9F04126
:1022800084B004460D4616461F46C26A01680B68B4
:1022900043F480630B60082A0DD0012A0BD012F59D
:1022A000803F08D0036B112B0AD10268136843F4F6
:1022B0008073136004E02268136843F48073136032
:1022C0000097334600224FF001112046FFF7BBFE76
:1022D00098B92369B3F5804F19D1236845F00105FA
:1022E000EDB21D613B4632462A492046FFF700FF0A
:1022F00000284CD104B0BDE8F08123681B6813F4BA
:10230000807F02D04FF4007323640320F2E74FEA8A
:10231000E51808F00608236848F0F0021A613B4609
:1023200032461D492046FFF7E3FE08B10120E1E7F0
:102330002368EDB21D613B46324616492046FFF741
:10234000D7FE08B10120D5E700220392236859691E
:102350000391996903910399196841F48071196097
:10236000009733464FF001112046FFF76CFE20B96D
:10237000226848F0F1031361B4E723681B6813F483
:10238000807F02D04FF4007323640320B2E7012062
:10239000B0E700BF020001000800010070B504466C
:1023A0000D46164623685B6913F0800F21D1204645
:1023B000FFF730FEF8B9B5F1FF3FF3D0FFF792FC1D
:1023C000801BA84201D8002DECD123685B6913F073
:1023D000800FE7D100232363202284F83D2084F876
:1023E0003E30226C42F02002226484F83C3001200E
:1023F00000E0002070BD0120FCE700002DE9F04363
:1024000085B004460D4691461F46DDF830800D9E8E
:102410000368196841F480711960009643460022F0
:102420004FF00111FFF70FFE60B9236805F0FE05BC
:102430001D613346424626492046FFF759FE68B1E2
:10244000012008E023681B6813F4807F02D04FF45A
:1024500000732364032005B0BDE8F08300230393D9
:1024600023685A6903929B690393039B3246414652
:102470002046FFF793FF30B9012F0FD123685FFA91
:1024800089F61E61E7E7236C042B01D00120E2E707
:102490002268136843F400731360F7E723684FEA78
:1024A00019221A61324641462046FFF777FF20B9CC
:1024B00023685FFA89F61E61CDE7236C042B01D0F7
:1024C0000120C8E72268136843F400731360F7E73C
:1024D000020001002DE9F04784B004460D4616467F
:1024E00099460C9FDDF834800268136843F48063DA
:1024F00013600368196841F480711960CDF8008099
:102500003B4600224FF00111FFF79DFD70B95FFAC5
:1025100085FA236805F0FE051D6143463A464149A8
:102520002046FFF7E5FD68B1012008E023681B683D
:1025300013F4807F02D04FF400732364032004B0AF
:10254000BDE8F0870023039323685A6903929B69CF
:102550000393039B424639462046FFF71FFF80B98D
:10256000B9F1010F18D12368F6B21E61424639460F
:102570002046FFF713FF68B3236C042B24D00120FF
:10258000DDE7236C042B01D00120D8E72268136813
:1025900043F400731360F7E72368320A1A61424676
:1025A00039462046FFF7FAFE18B92368F6B21E61D5
:1025B000DCE7236C042B01D00120C0E722681368FC
:1025C00043F400731360F7E72268136843F4007361
:1025D0001360D4E72268136843F480731360CDF866
:1025E00000803B4600224FF001112046FFF72BFDF3
:1025F00068B922684AF00103136143463A46094923
:102600002046FFF775FD002899D0012097E7236841
:102610001B6813F4807F02D04FF4007323640320FF
:102620008DE700BF0200010070B504460D46164656
:1026300023685B6913F0040F21D12046FFF7EAFC01
:10264000F8B9B5F1FF3FF3D0FFF74CFB801BA84270
:1026500001D8002DECD123685B6913F0040FE7D19A
:1026600000232363202284F83D2084F83E30226C2E
:1026700042F02002226484F83C30012000E0002077
:1026800070BD0120FCE770B504460D46164614E007
:102690006FF010025A6100232363202284F83D204A
:1026A00084F83E30226C226484F83C30012025E01E
:1026B00023685B6913F0400F10D02368586910F04D
:1026C000400F1AD1586910F0100FE1D1FFF70AFB43
:1026D000801BA842ECD8002DEFD1E9E7002323634B
:1026E000202284F83D2084F83E30226C42F0200203
:1026F000226484F83C30012000E0002070BD00001E
:10270000002800F0CC8070B5044690F83D30002BD6
:1027100077D0242384F83D302268136823F0010326
:1027200013602268136843F400431360226813683F
:1027300023F40043136001F077FA62685A4B9A421F
:1027400064D85A4B98428CBF00230123002B40F0E1
:10275000A8805749A1FB00318B0C25686A6822F0DC
:102760003F0242EA91426A6021680A6A22F03F020F
:1027700066684D4DAE424FD8013313430B6221685A
:10278000CA6922F44F4222F0FF026568464B9D421F
:102790004CD8431E6D00B3FBF5F3013340F6FC70DB
:1027A000034278D0C3F30B031A43CA6121680B6854
:1027B00023F0C003E269206A024313430B602168DF
:1027C0008B6823F4034323F0FF032269E06802438C
:1027D00013438B602168CB6823F0FF036269A06913
:1027E00002431343CB602268136843F00103136074
:1027F00000202064202384F83D30206384F83E00CC
:1028000070BD80F83C30FFF757F982E7294B9842BA
:102810008CBF0023012399E74FF4967505FB03F362
:10282000254DA5FB03539B090133A6E7A668BEB956
:10283000431E05EB450CB3FBFCF30133C3F30B0361
:10284000B3FA83F35B0943BBC6B9431E05EB4505E9
:10285000B3FBF5F30133C3F30B0343F40043A3E7E6
:10286000431E05EB850C0CEB8C0CB3FBFCF3013326
:10287000C3F30B03B3FA83F35B09E4E7431E05EBF1
:10288000850505EB8505B3FBF5F30133C3F30B03B6
:1028900043F4404388E7042386E7012384E70120CB
:1028A00070470120ACE700BFA08601007F841E00B6
:1028B00083DE1B43FF083D00D34D62102DE9F0433A
:1028C00085B004460F46914698460C9EFFF70AFADB
:1028D000054694F83D00C0B2202804D002273846AF
:1028E00005B0BDE8F0830095192301224F49204629
:1028F000FFF7A9FB002840F0928094F83C30012BB0
:1029000000F08F80012384F83C3023681A6812F0AD
:10291000010F03D11A6842F001021A60226813689D
:1029200023F400631360212384F83D30102384F8DE
:102930003E3000232364C4F82490A4F82A80638DD9
:1029400023853B4BE3622B46324639462046FFF750
:102950003BFC0746002866D10023039323685A698D
:1029600003929B690393039B11E0236C042B01D01A
:102970000127B4E72268136843F400731360F7E794
:102980002A4631462046FFF74FFE00282ED1238DE0
:10299000002B36D02A4631462046FFF7FFFC0028A0
:1029A000E3D1626A236812781A61606A431C636229
:1029B000618D89B2013989B26185238D013B9BB25A
:1029C00023852268516911F0040FD9D0002BD7D08C
:1029D00043781361636A01336362638D9BB2013B89
:1029E0009BB26385238D013B2385C9E7236C042BB0
:1029F00001D0012773E72268136843F40073136062
:102A0000F7E72268136843F400731360202384F807
:102A10003D30002384F83E3084F83C305FE70227E5
:102A20005DE702275BE7012759E700BF02001000BE
:102A30000000FFFF2DE9F04387B004460F469146A2
:102A400098460E9EFFF74EF9054694F83D00C0B239
:102A5000202804D00227384607B0BDE8F08300954F
:102A60001923012289492046FFF7EDFA002840F09A
:102A70004F8194F83C30012B00F04C81012384F805
:102A80003C3023681A6812F0010F03D11A6842F033
:102A900001021A602268136823F400631360222382
:102AA00084F83D30102384F83E3000232364C4F8BA
:102AB0002490A4F82A80638D2385754BE3622B460E
:102AC000324639462046FFF7D9FB0746002840F03A
:102AD0002381238D5BB9029323685A6902929A6914
:102AE0000292029A1A6842F400721A607AE0012B8C
:102AF0000FD0022B1FD02268136843F48063136049
:102B00000023059323685A6905929B690593059BE9
:102B100068E02268136823F4806313600023039342
:102B200023685A6903929A690392039A1A6842F4D5
:102B300000721A6056E02268136823F48063136001
:102B40002268136843F4006313600023049323682E
:102B50005A6904929B690493049B43E02A463146D8
:102B60002046FFF790FD002840F0D88023681A69BE
:102B7000636A1A70636A01336362238D013B2385A4
:102B8000638D9BB2013B9BB263852BE0009533467E
:102B9000002240492046FFF756FA002840F0C08046
:102BA0002268136843F40073136023681A69636A28
:102BB0001A70626A531C6362238D013B2385638D07
:102BC0009BB2013B9BB2638523681B695370636AA8
:102BD00001336362238D013B2385638D9BB2013BEF
:102BE0009BB26385218D002900F08980032953D889
:102BF0000129B3D00229C9D00095334600222549C6
:102C00002046FFF720FA002840F08C8022681368E5
:102C100023F48063136023681A69636A1A70636A15
:102C200001336362238D013B2385618D89B20139B4
:102C300089B2618500953346002216492046FFF788
:102C400002FA002870D12268136843F400731360FD
:102C500023681A69636A1A70626A531C6362238D5F
:102C6000013B2385638D9BB2013B9BB26385236847
:102C70001B695370636A01336362238D013B2385B3
:102C8000638D9BB2013B9BB26385ABE702001000F2
:102C90000000FFFF040001002A4631462046FFF7EE
:102CA000F2FC002842D123681A69636A1A70636AC9
:102CB00001336362228D013A92B22285638D9BB209
:102CC000013B9BB263852368596911F0040F89D0D9
:102CD000032A0FD023681A69636A1A70636A013382
:102CE0006362238D013B2385638D9BB2013B9BB2C5
:102CF000638577E71A6822F480621A60EAE7202386
:102D000084F83D30002384F83E3084F83C30A2E65D
:102D10000227A0E602279EE601279CE601279AE605
:102D2000012798E6012796E6012794E6012792E617
:102D30002DE9F04383B004460F46904699460C9E19
:102D4000FEF7D0FF054694F83D00C0B2202803D01E
:102D5000022003B0BDE8F0830095192301224B49FE
:102D60002046FFF770F9002840F0898094F83C3045
:102D7000012B00F08680012384F83C3023681A6818
:102D800012F0010F03D11A6842F001021A602268A2
:102D9000136823F400631360212384F83D3040233B
:102DA00084F83E30002323640A9B6362BDF82C3014
:102DB0006385638D2385364BE362019500964B4610
:102DC000424639462046FFF719FB00285BD1238D88
:102DD000002B35D02A4631462046FFF7DFFA20BBCC
:102DE000626A236812781A61626A531C6362218DD9
:102DF000013989B22185638D9BB2013B9BB263850A
:102E00002368586910F0040FE1D00029DFD0527810
:102E10001A61636A01336362238D013B2385638DED
:102E20009BB2013B9BB26385D1E7236C042B01D09D
:102E300001208EE72268136843F400731360F7E7FC
:102E40002A4631462046FFF7EFFB50B1236C042B96
:102E500001D001207DE72268136843F400731360FA
:102E6000F7E72268136843F400731360202384F8A3
:102E70003D30002384F83E3084F83C3069E702207E
:102E800067E7022065E7012063E700BF020010004A
:102E90000000FFFF2DE9F04387B004460F4690463F
:102EA0009946109EFEF71EFF054694F83D00C0B2FD
:102EB000202804D00227384607B0BDE8F0830095EB
:102EC0001923012288492046FFF7BDF8002840F069
:102ED000438194F83C30012B00F04081012384F8B9
:102EE0003C3023681A6812F0010F03D11A6842F0CF
:102EF00001021A602268136823F40063136022231E
:102F000084F83D30402384F83E30002323640E9B38
:102F10006362BDF83C306385638D2385734BE36248
:102F2000019500964B46424639462046FFF7D2FAB5
:102F30000746002840F01481238D5BB90293236873
:102F40005A6902929A690292029A1A6842F40072CD
:102F50001A6075E0012B0AD0022B1AD000230593CA
:102F600023685A6905929B690593059B68E022686E
:102F7000136823F4806313600023039323685A6962
:102F800003929A690392039A1A6842F400721A60D3
:102F900056E02268136823F4806313602268136884
:102FA00043F4006313600023049323685A69049276
:102FB0009B690493049B43E02A4631462046FFF771
:102FC00062FB002840F0CE8023681A69636A1A7099
:102FD000636A01336362238D013B2385638D9BB25A
:102FE000013B9BB263852BE00095334600224049AC
:102FF0002046FFF728F8002840F0B68022681368C2
:1030000043F40073136023681A69636A1A70626A72
:10301000531C6362238D013B2385638D9BB2013B6F
:103020009BB2638523681B695370636A01336362D3
:10303000238D013B2385638D9BB2013B9BB263854E
:10304000238D002B7FD0032B54D8012BB4D0022B1F
:10305000CAD000953346002225492046FEF7F3FFEB
:10306000002840F083802268136823F48063136093
:1030700023681A69636A1A70636A01336362238D75
:10308000013B2385638D9BB2013B9BB26385009519
:103090003346002216492046FEF7D5FF002867D1A7
:1030A0002268136843F40073136023681A69636A23
:1030B0001A70626A531C6362238D013B2385638D02
:1030C0009BB2013B9BB2638523681B695370636AA3
:1030D00001336362238D013B2385638D9BB2013BEA
:1030E0009BB26385ACE700BF020010000000FFFF49
:1030F000040001002A4631462046FFF7C4FA0028A2
:1031000038D123681A69636A1A70626A531C636251
:10311000238D013B2385638D9BB2013B9BB263856D
:103120002368596911F0040F8AD01B695370636AD0
:1031300001336362238D013B2385638D9BB2013B89
:103140009BB263857CE7202384F83D30002384F81C
:103150003E3084F83C30AEE60227ACE60227AAE611
:103160000127A8E60127A6E60127A4E60127A2E693
:103170000127A0E601279EE62DE9F84304460E4606
:1031800090461F4690F83530DBB2012B04D090F802
:103190003530DBB2022B30D194F83530DBB2012B65
:1031A0001FD194F83430012B29D0012384F8343016
:1031B000022384F83530FEF795FD814623689D682B
:1031C00015F0040F0DD0FEF78DFDA0EB0900B0F552
:1031D0007A7FF3D90223A363002384F834300320D9
:1031E00009E02268043602EB8602536803EA08030A
:1031F0003B4353600020BDE8F8830120FBE7022039
:10320000F9E738B5044603680822DA600268936873
:1032100043F004039360FEF765FD054623689B6851
:1032200013F0080F0CD1FEF75DFD401BB0F57A7F5F
:10323000F4D90423A363002384F83430032005E089
:10324000012384F83530002084F8340038BD38B5C7
:10325000044690F83530DBB2012B04D090F83530BD
:10326000DBB2022B2CD194F83430012B2AD001236D
:1032700084F83430022384F83530FEF733FD0546F8
:1032800023689B6813F0040313D0FEF72BFD431B48
:10329000B3F57A7FF4D90223A363002384F8343092
:1032A00003200EE02268191D02EB8102002151600B
:1032B00001330F2BF6D92046FFF7A3FF002000E0D3
:1032C000012038BD0220FCE738B50446FEF70AFDB0
:1032D000054623689B6813F0200F09D1FEF702FD15
:1032E000401BB0F57A7FF4D90123A363032000E0EB
:1032F000002038BD002876D038B5044690F8353027
:103300004BB1022384F835302268136823F001039F
:10331000136000230CE080F83430FEF701FCF0E786
:103320002268191D02EB8102002151600133DBB2DA
:103330000F2BF5D92268936843F00403936021684A
:103340004A686FF319126368A0680343A06A0343D5
:10335000E06A0343E0690343206A0343A06903432F
:10336000606A034313434B602046FFF7ADFF2168BB
:103370000A6822F0FE02E3682069034360690343A0
:10338000206B034313430B602268136843F001036F
:103390001360FEF7A7FC054623689B6813F0010F36
:1033A00009D1FEF79FFC401BB0F57A7FF4D90823C2
:1033B000A363032038BDFEF795FC054623689B6890
:1033C00013F0100F09D1FEF78DFC401BB0F57A7F8A
:1033D000F4D91023A3630320ECE70020A0630123AA
:1033E00084F83530E6E701207047000010B483B060
:1033F0001F4B9B6813F0F00328D11D4A526A12F04C
:10340000805F10D01B4A126802F4C052B2F5C05F50
:103410001DD1B0F5404F1AD1174A136843F0040389
:103420001360012313E012494A6A42F080524A6253
:103430004A6A02F080520192019A0E4A126802F41E
:10344000C0524C6A24F080544C62DFE700230A49E2
:103450000A6822F001021A430A600A6802F00102B7
:103460009A4203D1002003B010BC70470120FAE754
:103470000038024000700040003C0240002800F08C
:103480005E82F0B583B00446A24B9D6805F00C0542
:103490009E6806F48036036813F0010F1DD0082DD6
:1034A00012D00C2D0ED06368012B35D0002B49D1E2
:1034B000984B1A6822F480321A601A6822F480222B
:1034C0001A602EE0002EEED0924B1B6813F4003FE2
:1034D00003D06368002B00F03482236813F0020FDE
:1034E00068D0042D55D00C2D51D0E368002B00F08E
:1034F000C780894B01221A60FEF7F4FB0646854B14
:103500001B6813F0020F40F0B280FEF7EBFB801B4C
:103510000228F4D903201DE27E4A136843F4803365
:103520001360636823B3FEF7DDFB0746794B1B6826
:1035300013F4003FD1D1FEF7D5FBC01B6428F5D9A9
:10354000032007E2052B09D0724B1A6822F480325F
:103550001A601A6822F480221A60E2E76D4B1A683A
:1035600042F480221A601A6842F480321A60D8E766
:10357000FEF7B8FB0746674B1B6813F4003FACD05F
:10358000FEF7B0FBC01B6428F5D90320E2E1002E52
:10359000ABD1604B1B6813F0020F03D0E368012B23
:1035A00040F0D1815B4A536823F4F853216943EA20
:1035B00001235360236813F0100F3BD0002D40F01F
:1035C0008580544B1B6813F4007F03D0A369002B44
:1035D00000F0BB81206A4F4B5B6803F46043984264
:1035E00060D9FFF703FF002840F0B181494A5368D2
:1035F00023F46043216A0B435360536823F07F43F5
:10360000E16943EA01635360236A5B0B5A1C4FF480
:10361000004393403F4A9268C2F303123F498A5CD9
:10362000D3403F4A13603F4B1868FEF717FB002852
:1036300040F09081236813F0080F00F09B806369CD
:10364000002B00F08480344B0122C3F88026FEF763
:1036500049FB06462F4B5B6B13F0020F40F08A804C
:10366000FEF740FB801B0228F4D9032072E1294AAF
:10367000536823F4F853216943EA0123536099E71F
:10368000254B00221A60FEF72DFB0646214B1B68D6
:1036900013F0020F8ED0FEF725FB801B0228F5D910
:1036A000032057E11B4A536823F4604318435060DA
:1036B000536823F07F43E16943EA01635360206A62
:1036C000FFF794FE00289FD0012043E1A3695BB37C
:1036D000114B01221A62FEF705FB06460D4B1B68D3
:1036E00013F4007F06D1FEF7FDFA801B0228F5D9FE
:1036F00003202FE1074A536823F46043216A0B43F8
:103700005360536823F07F43E16943EA01635360E8
:1037100090E700BF0038024000004742F451000823
:1037200000000020080000208F4B00221A62FEF7E4
:10373000D9FA06468D4B1B6813F4007F3FF47AAF2D
:10374000FEF7D0FA801B0228F4D9032002E1864B51
:103750000022C3F88026FEF7C5FA0646834B5B6B52
:1037600013F0020F06D0FEF7BDFA801B0228F5D930
:103770000320EFE0236813F0040F79D07B4B5B6AE2
:1037800013F0805F0BD1794B5A6A42F080525A6233
:103790005B6A03F080530193019B012600E0002641
:1037A000734B1B6813F4807F0ED0A368012B1FD0CE
:1037B000002B35D16D4B5A6B22F480725A635A6BD1
:1037C00022F480625A6318E0694A136843F48073F4
:1037D0001360FEF787FA0746654B1B6813F4807F7A
:1037E000E3D1FEF77FFAC01B6428F5D90320B1E0CE
:1037F0005E4A536B43F480735363A36833B3FEF79D
:1038000071FA0746594B5B6B13F4007F2FD1FEF71B
:1038100069FAC01B41F288339842F3D9032099E03A
:10382000052B09D0514B5A6B22F480725A635A6BA4
:1038300022F480625A63E0E74C4B5A6B42F4806298
:103840005A635A6B42F480725A63D6E7FEF74AFA1B
:103850000746464B5B6B13F4007F08D0FEF742FA35
:10386000C01B41F288339842F3D9032072E0C6B9F5
:10387000636A002B6DD00C2D4CD0022B17D03A4B25
:1038800000221A66FEF72EFA0446384B1B6813F026
:10389000007F3DD0FEF726FA001B0228F5D9032051
:1038A00058E0324A536A23F080535362E0E72E4BCC
:1038B00000221A66FEF716FA05462C4B1B6813F019
:1038C000007F06D0FEF70EFA401B0228F5D9032030
:1038D00040E026498B6823F47D03A26AE06A024334
:1038E000206B024313438B601F4B01221A66FEF7C5
:1038F000F9F904461D4B1B6813F0007F06D1FEF753
:10390000F1F9001B0228F5D9032023E0002021E073
:1039100000201FE0012B1FD0144B9B6803F4803163
:10392000A26A91421AD103F47012E16A8A4217D155
:1039300003F44003226B934214D100200AE00120DB
:103940007047012006E0012004E0012002E0012090
:1039500000E0002003B0F0BD0120FBE70120F9E703
:103960000120F7E70120F5E7000047420038024058
:103970000070004008B5324B9A6802F00C03082B27
:103980005AD00C2B0AD0042B58D02D4B5B68C3F3B4
:10399000423301334FF40040984008BDC2F38343E3
:1039A0002849C85CC2F381520132254B9B6813F44D
:1039B000803F20D04FEA401CBCEB000C6EEB0E0E9B
:1039C0004FEA8E1343EA9C634FEA8C11B1EB0C0172
:1039D00063EB0E03DB0043EA5173C90011EB000CEB
:1039E00043F10003590200234FEA4C2041EADC5125
:1039F000FDF7ACF8D1E74FEA401CBCEB000C6EEBD6
:103A00000E0E4FEA8E1343EA9C634FEA8C11B1EB22
:103A10000C0163EB0E03DB0043EA5173C90011EBA9
:103A2000000C43F10003990200234FEA8C2041EA85
:103A30009C51FDF78BF8B0E70348AEE70348ACE7CD
:103A4000003802400452000800127A000024F400FA
:103A5000002800F0D18070B50C4605466A4B1B6803
:103A600003F001038B420DD2012928D0664A136866
:103A700023F0010323431360136803F00103A342FF
:103A800040F0BC802B6813F0020F06D05F4A9368A9
:103A900023F0F003A9680B4393602B6813F0010F28
:103AA00072D06B68022B10D0032B32D0012B37D091
:103AB000564A126812F4007F0DD101209BE0524A51
:103AC000136843F004031360D0E7504A126812F4FD
:103AD000003F00F095804D498A6822F003021343AD
:103AE0008B60FEF7FFF806466B68022B1FD0032B96
:103AF0002CD0012B39D0454B9B6813F00C0F43D0D1
:103B0000FEF7F0F8801B41F288339842F3D9032086
:103B100071E03E4A126812F0007FDCD101206AE0B9
:103B20003A4A126812F0020FD5D1012063E0374BF8
:103B30009B6803F00C03082B26D0FEF7D3F8831BF9
:103B400041F288329342F2D9032054E02F4B9B6814
:103B500003F00C030C2B17D0FEF7C4F8801B41F2C6
:103B600088339842F2D9032045E0284B9B6803F044
:103B70000C03042B08D0FEF7B5F8801B41F2883304
:103B80009842F2D9032036E01F4B1B6803F0010373
:103B9000A3420AD91C4A136823F00103234313608C
:103BA000136803F00103A3422CD12B6813F0040F18
:103BB00006D0164A936823F4E063E9680B439360E8
:103BC0002B6813F0080F07D0104A936823F4605352
:103BD000296943EAC1039360FFF7CCFE0B4B9B6856
:103BE000C3F303130A4AD35CD8400A4B18600A4B4C
:103BF0001868FEF733F870BD012070470120FAE71E
:103C00000120F8E70120F6E7003C024000380240BE
:103C1000F45100080000002008000020014B186843
:103C2000704700BF0000002008B5FFF7F7FF044B06
:103C30009B68C3F30223034AD35CD84008BD00BF8E
:103C400000380240EC51000870B582B0036813F0F0
:103C5000030F00F0BA8004465E4B5B6A13F0805F8E
:103C60006DD15C4B5A6A42F080525A625B6A03F033
:103C700080530193019B0125574B1B6813F4807FF0
:103C80005FD0544B1B6803F0C043626802F0C04130
:103C900099426AD002F44033B3F5403F6BD04D4BAC
:103CA0005B6B13F440331FD002F440329A4203D0CE
:103CB000226812F0010F08D1A26802F440329A4241
:103CC00012D0236813F0020F0ED0424A536B23F434
:103CD000403042490126C1F8DC660026C1F8DC66A6
:103CE000506313F4807F4DD1236813F0020F0CD082
:103CF000A36803F44032B2F5403F54D035494B6BD2
:103D0000A26802F4403213434B63236813F0010F9F
:103D10000CD0636803F44032B2F5403F4CD02D49DB
:103D20004B6B626802F4403213434B63012D4DD15B
:103D3000284A536A23F080535362002546E0002549
:103D40009AE7254A136843F480731360FDF7CAFFAE
:103D50000646214B1B6813F4807F92D1FDF7C2FF0A
:103D6000801B6428F5D9032530E0A16801F0C0412B
:103D700099428FD193E7174B1B6813F4003F8ED005
:103D8000012523E0FDF7AEFF0646124B5B6B13F4F3
:103D9000007FA9D1FDF7A6FF801B41F2883398422E
:103DA000F3D9032512E00B490A6822F0C04203F060
:103DB000C04313430B60A1E706490A6822F0C042E2
:103DC00003F0C04313430B60A9E70025284602B067
:103DD00070BD00BF00380240007000400000474244
:103DE0002DE9F04786468C46084615467446194626
:103DF000089E002B40F0C2808542B2FA82F245D97B
:103E00004AB1C2F1200300FA02FC2EFA03F39540F6
:103E100043EA0C0C94404FEA154EBCFBFEF8A8B2E6
:103E20000EFB18CC08FB00F9230C43EA0C43994520
:103E300028D9EB1808F1FF3704D2994502D9A8F127
:103E400002072B44A3EB0903B3FBFEFC0EFB1C3360
:103E50000CFB00F0A4B244EA0344A04214D92C198C
:103E60000CF1FF3304D2A04202D9ACF102032C447E
:103E7000241A43EA07401EB10023D4403460736023
:103E8000BDE8F0874746DDE76346F1E792BB0121D5
:103E9000431B4FEA154EB3FBFEFCAFB20EFB1C33C7
:103EA0000CFB07F8200C40EA0343984562D9EB1855
:103EB0000CF1FF3004D2984502D9ACF102002B443A
:103EC000A3EB0803B3FBFEFC0EFB1C330CFB07F754
:103ED000A4B244EA0344A7424ED92C190CF1FF3393
:103EE00004D2A74202D9ACF102032C44E41B43EAFA
:103EF0000040C0E7C2F12003954020FA03F12EFAFA
:103F000003F34FEA154EB1FBFEFC90400343AFB202
:103F10000EFB1C100CFB07F8190C41EA0041884508
:103F200004FA02F422D969180CF1FF3004D2884552
:103F300002D9ACF102002944A1EB0801B1FBFEFC5F
:103F40000EFB1C110CFB07F79BB243EA01439F4297
:103F50000ED9EB180CF1FF3104D29F4202D9ACF11B
:103F600002012B44DB1B41EA004192E76046E3E794
:103F70006146F7E76046A3E76346B7E7834206D9A1
:103F800016B9002108467BE7C6E900E0F9E7B3FA75
:103F900083F78FB9834201D3724508D8BEEB020480
:103FA00060EB030301209C461EB9002168E73846F8
:103FB000FAE7C6E9004CF8E7C7F1200CBB4022FA4B
:103FC0000CF41C434FEA144920FA0CF3B3FBF9F844
:103FD000B8402EFA0CF101430EFA07F509FB183030
:103FE0001FFA84FE08FB0EFA0B0C43EA00439A45C5
:103FF00002FA07F240D9E31808F1FF3004D29A45DB
:1040000002D9A8F102002344A3EB0A03B3FBF9F899
:1040100009FB183308FB0EFE89B241EA03418E45C5
:104020002CD9611808F1FF3304D28E4502D9A8F1CA
:104030000203214443EA0040A0FB0298A1EB0E01D9
:104040004145CE46434602D306D14D4504D2B9EB95
:10405000020E68EB04030138002EA6D0B5EB0E0269
:1040600061EB030101FA0CFC22FA07F34CEA0303AB
:10407000F940C6E9003198E74046C5E74346D9E72D
:10408000002301461A46184600F096B870B5860718
:1040900047D0541E002A3ED00346CAB201E0013C7C
:1040A00039D303F8012B9D07F9D1032C2CD9CDB2BC
:1040B00005EB05250F2C1A4605EB054534D9A4F16F
:1040C000100C2CF00F0603F1100EB6444FEA1C1C26
:1040D000156055609560D56010327245F8D10CF1CD
:1040E000010214F00C0F03EB021204F00F0C13D0BA
:1040F000ACF1040323F003030433134442F8045BDC
:104100009A42FBD10CF003042CB1C9B21C4403F851
:10411000011B9C42FBD170BD64461346002CF4D1B8
:10412000F9E703461446C0E7A446E1E7014B1868E7
:10413000704700BF0C00002070B50F4B0F4DAB4215
:10414000A3EB050607D00024B61055F8043B013454
:104150009847A642F9D801F037F8094D094B5E1B84
:10416000AB424FEAA60606D0002455F8043B0134C2
:104170009847A642F9D870BD185200081852000896
:10418000185200082052000838B5074D074C2C1B68
:10419000A41005D0013C55F8043D9847002CF9D1F6
:1041A000BDE8384001F016B824520008205200083B
:1041B000704700BF704700BF2DE9F8431B4D06460E
:1041C000286898460F469146FFF7F2FF184B1C6887
:1041D0001CB3286865681F2D22DC4EB96B1C0235A4
:1041E000636044F82570FFF7E5FF0020BDE8F88321
:1041F000012304EB8501C1F88890D4F88821AB40F5
:104200001A43022EC4F88821C1F80881E6D1D4F8F7
:104210008C211A43C4F88C21E0E7064C1C60D8E7D7
:10422000FFF7C8FF4FF0FF30E0E700BF300100208C
:104230001C0500208C030020024B13B10248FFF73D
:104240001FBF704700000000894100082DE9F843B6
:1042500014461D468046894600F06EF82246064602
:104260000F462B4620462946FCF724FF78B900224A
:10427000002340464946FCF7EBFED8B1002200235C
:1042800020462946FCF7E4FE28B10026254F30469B
:104290003946BDE8F8832046294600F045F8002855
:1042A000F5D02046294600220023FCF7DBFE00283B
:1042B000EDD02CE03046394600F036F8A0B10022AF
:1042C000002330463946FCF7C3FE0028DFD04046C5
:1042D000494600F029F80028D9D02046294600F0A8
:1042E00023F80028D3D012E04046494600F01CF8DD
:1042F0000028E4D02046294600F016F80028DED039
:1043000032463B4630463946FCF7D4FE20B9FFF72B
:104310000DFF22230360BAE7FFF708FF21230360A4
:10432000B5E700BF0000F03F41F0004000F580100D
:10433000C00F7047000000002DE9F04F23F0004946
:10434000064659EA020014461D460F4693B010D1A6
:10435000B319264987F4002252419842914120D254
:1043600022462B4630463946FBF7F0FE13B0BDE837
:10437000F08F11461E4A27F0004B93459A46B846E7
:10438000334613D908F1404808F5801858EA030865
:10439000E6D12319154985F40022524198459141EF
:1043A000DED30020134913B0BDE8F08F15D091453E
:1043B000E8D85A4600F0D983B8F1000F1CDB002979
:1043C00040F0E9830B48814540F01C84BAF1000FAE
:1043D000C0F2D68430463946C8E7002EC0D1D94550
:1043E000BED800F042845A46E6E700BF0000F0FF66
:1043F0000000F07F0000F03FD348814500F2DF83EA
:10440000D24881450FD94FEA2950A0F2FF30142835
:1044100040F39D84C0F1340021FA00FC0CFA00F056
:10442000884200F02783002940F06A83BAF1804F68
:1044300000F02C830091304639460492029300F03C
:1044400021FD029B049A002B00F06583DDF800C07B
:104450004FEAD873013B0A935CEA030300F0AC8394
:10446000BB4B994500F2BD83BA4B08EA0303002B0E
:1044700040F0FF830022B84BFCF782FB6FF034065C
:104480000A461315A3F2FF339F19B44BC2F313026C
:1044900042F07F569A420B9746F4401607DDB04B28
:1044A0009A4240F3808401370B97A6F580160022CC
:1044B00000234FF000080027DFF8A892CDE9082379
:1044C000CDE90689CDE91023DDE906233146824690
:1044D000FBF73AFEDDE90623B3468046894650469F
:1044E0003146CDE90CABFBF731FE02460B4600200E
:1044F0009C49FCF76FFC8C46834663465A4640460F
:104500004946CDE90EBCFCF73BFB82468B46731057
:1045100043F0005303F50023D9190F465A4651467C
:1045200000230020CDE902120293064602463B46D4
:10453000CDE904ABDDE902AB50465946FCF720FB60
:1045400002460B4640464946FBF7FEFDDDE90623E1
:104550008046894630463946FBF7F6FD02460B4653
:10456000DDE90C01FBF7F0FD52465B46FCF708FB6A
:1045700002460B4640464946FBF7E6FDDDE90E23C1
:10458000FCF7FEFADDE90467CDE9060132463B4659
:1045900030463946FCF7F4FA5BA3D3E9002306461C
:1045A0000F46FCF7EDFA5AA3D3E90023FBF7CEFD43
:1045B00032463B46FCF7E4FA57A3D3E90023FBF766
:1045C000C5FD32463B46FCF7DBFA55A3D3E9002391
:1045D000FBF7BCFD32463B46FCF7D2FA52A3D3E9C7
:1045E0000023FBF7B3FD32463B46FCF7C9FA50A364
:1045F000D3E90023FBF7AAFD3246804689463B46B5
:1046000030463946FCF7BCFA02460B46404649465E
:10461000FCF7B6FA06460F46DDE9040152465B4652
:10462000FBF794FDDDE90623FCF7AAFA32463B4688
:10463000FBF78CFD5246804689465B4650465946FC
:10464000FCF79EFA02460B46CDE90C230022464BAE
:10465000FBF77CFD42464B46FBF778FD00260F46F4
:1046600032463B4650465946FCF78AFA00228246BB
:104670008B46304639463C4BFBF766FDDDE90C23A3
:10468000FBF762FD02460B4640464946FBF75CFDE0
:10469000DDE90423FCF774FA324680468946DDE9F9
:1046A00006013B46FCF76CFA02460B46404649467B
:1046B000FBF74CFD80468946002642464B46504655
:1046C0005946FBF743FD1CA3D3E9002330460F46B0
:1046D000FCF756FA52465B4682468B4630463946D0
:1046E000FBF732FD02460B4640464946FBF72CFDE0
:1046F00013A3D3E90023FCF743FA02460B463046E6
:10470000394616461F4631E0EF4E454A287ECA3FDD
:1047100065DBC9934A86CD3F01411DA96074D13F35
:104720004D268F515555D53FFFAB6FDBB66DDB3F47
:10473000033333333333E33F000000E009C7EE3F78
:10474000FD033ADC09C7EE3FFFFF3F43FFFFEF3FAA
:104750000000E0410000F07F000040438E9803001D
:1047600079B60B000000F03F00000840CCA3D3E96D
:104770000023FCF705FA02460B4630463946FBF7A4
:10478000E5FCDDE91023FBF7E1FC06460B980F463C
:10479000FBF728FE8046894632463B46504659463E
:1047A000CDE904ABFBF7D2FCDDE90823FBF7CEFC37
:1047B00042464B46FBF7CAFC002042464B46824627
:1047C0008B46FBF7C1FCDDE90823FBF7BDFCDDE907
:1047D0000423FBF7B9FC02460B4630463946FBF78B
:1047E000B3FC009B0A9A013B13434FF0000214BF35
:1047F000BF4BC04BCDE90045CDE904230023009316
:10480000DDE90089CDE902014246204629464B46B2
:10481000FBF79AFC52465B46FCF7B2F92246064685
:104820000F46DDE902012B46FCF7AAF902460B46CA
:1048300030463946FBF78AFC04460D4642464B4655
:1048400050465946CDE90245FCF79AF906460F460F
:10485000204629463B463246FBF778FCA64B0446E9
:1048600099420D46884640F3DC8101F13F4303F550
:10487000E003034340F0A9828BA3D3E90023DDE9E1
:104880000201FBF763FC02460B462046294614460C
:104890001D4632463B46FBF757FC02460B46204678
:1048A0002946FCF7FDFB002840F08F824FF400738F
:1048B00000204344C3F30A52904CA2F2FF32144149
:1048C000C3F3130AC2F1140204EA03014AF4801A82
:1048D0000B464AFA02FAB8F1000F02463946304652
:1048E000B8BFCAF1000AFBF72FFC06460F46DDE908
:1048F000020132463B46FBF729FC0D464FEA0A5BB4
:1049000000246BA3D3E9002320462946FCF738F99D
:104910003246804689463B4620462946FBF714FC32
:1049200002460B46DDE90201FBF70EFC62A3D3E968
:104930000023FCF725F902460B462046294614467B
:104940001D465FA3D3E90023FCF71AF902460B4684
:1049500020462946FBF7FAFB06460F4632463B4601
:1049600040464946FBF7F2FB42464B4604460D469D
:10497000FBF7EAFB02460B4630463946FBF7E4FB01
:104980002246804689462B4620462946FCF7F8F801
:104990004DA3D3E9002306460F46FCF7F1F84CA3DC
:1049A000D3E90023FBF7D0FB32463B46FCF7E8F89F
:1049B00049A3D3E90023FBF7C9FB32463B46FCF78A
:1049C000DFF847A3D3E90023FBF7BEFB32463B46A3
:1049D000FCF7D6F844A3D3E90023FBF7B7FB324634
:1049E0003B46FCF7CDF802460B4620462946FBF72E
:1049F000ABFB06460F4632463B4620462946FCF7AF
:104A0000BFF802460B463046394616461F4600227E
:104A10004FF08043FBF798FB02460B463046394681
:104A2000FCF7D8F9424606460F464B462046294633
:104A3000FCF7A6F842464B46FBF788FB02460B46BE
:104A400030463946FBF780FB22462B46FBF77CFBC2
:104A500002460B4600202649FBF776FB0C465C44D9
:104A6000B4F5801FC0F2BB812146DDE90423FCF7C9
:104A700087F87BE40CF0010CCCF1020000900029D7
:104A800040F08B80BAF1804F7FF4D5AC32463B4684
:104A900030463946FCF774F868E400BFAFF3008095
:104AA000F5015B14E02F3EBEFE822B654715973C57
:104AB00000000000432EE63FEF39FAFE422EE63FAB
:104AC000396CA80C615C20BED0A4BE726937663E0A
:104AD000F16BD2C541BDBB3E2CDE25AF6A56113FFE
:104AE00093BDBE166CC1663F3E5555555555C53FE5
:104AF0000000F03F0000F0BFFFFF8F400000F0FF1C
:104B0000304639460292009300F0BCF9009B029AAD
:104B1000002B51D10093C24B28F0404C9C4503D050
:104B2000BBF1000F7FF492ACBAF1000F05DA024638
:104B30000B460020BA49FCF74DF9B8F1000FBFF65B
:104B400015AC009B0BF1404B0BF5801B5BEA030B94
:104B500040F0208102460B4610461946FBF7F4FA56
:104B600002460B46FCF736F900E4002C7FF40AAC51
:104B70000BF1404202F5801232433FF412ACA94BD4
:104B80009B4540F2D780BAF1000FC0F22C8120463D
:104B90002946FFF7EBBB00210091304639460492CD
:104BA000029300F06FF9029B049A002BB3D04FEAF6
:104BB000D873013B0A9353E432463B46CCE70029C5
:104BC00000F03E81304639460292009300F05AF9D7
:104BD000009B029A002B00F0DB800223009300234D
:104BE0000A93914B99458F4B45D99B4540F29C8048
:104BF000BAF1000F40F39C80002013B0BDE8F04FE5
:104C000000F0EEB9BAF1804F3FF440AF87488245DB
:104C10007FF410AC3046394613B0BDE8F04F00F0D9
:104C2000E5B9DFF80CC221F00043634540F2A080F3
:104C3000804B0B4403430AD132463B46FBF784FAD0
:104C4000DDE90223FCF722FA00283FF42FAEDDE96C
:104C5000040100220023FCF705FA003818BF0120E8
:104C600013B0BDE8F04F00F0B5B9002C7FF478AB7D
:104C700085E7002605E49B4556D3694B9B45B7D88D
:104C80000022674BFBF760FA59A3D3E900230646DD
:104C90000F46FBF775FF58A3D3E9002382468B46E6
:104CA00030463946FBF76CFF0022CDE90201624B2A
:104CB00030463946FBF764FF02460B4650A1D1E966
:104CC0000001FBF741FA32463B46FBF759FF02462B
:104CD0000B4600205549FBF737FA32463B468046E3
:104CE000894630463946FBF74BFF02460B464046A5
:104CF0004946FBF745FF44A3D3E90023FBF740FFF8
:104D000002460B46DDE90201FBF71EFA06460F4696
:104D10005046594632463B46FBF718FA00205246A9
:104D20005B4682468B4654E5BAF1000FFFF664AF4E
:104D3000002095E7BAF1000F4FF000004FF000019E
:104D4000BFF614AB204605F10041FFF70FBB002969
:104D50007FF4D6AEC0F1140049FA00FC0CFA00F062
:104D6000484575D02E4881453FF430ABFFF75EBB18
:104D70002E4A93427BD8DDE9002393469246BFE555
:104D800032463B4600202649FCF724F8FFF7EEBAEE
:104D90000223BFE6009B012B7FF4E8AA01F1004348
:104DA0001946FFF7E3BA0022244B4FF48027CDE9E0
:104DB000062317A3D3E90023CDE9082316A3D3E9DB
:104DC0000023CDE91023FFF77FBB0022DDE90401BA
:104DD0000023FCF747F9003818BF01200DE75246C1
:104DE00000F056F841E600200021FFF7BFBA00BFEF
:104DF000000000604715F73F44DF5DF80BAE543EFE
:104E0000555555555555D53FFE822B654715F73FEE
:104E10000000004003B8E23F06D0CF43EBFD4C3E1C
:104E20000000F03FFFFFEF3F0000F0430000E03FD5
:104E3000FFCB904000346F3F0000D03F0000F83FB0
:104E4000BAF1804F3FF422AE02210091FFF7F3BA8E
:104E50000B4989453FF4BAAABAF1804F3FF416AE28
:104E60000CF0010CCCF102010091FFF7E4BA4FF411
:104E700080121B15A3F2FE3342FA03F318E500BFBC
:104E80000000F03F21F00043194670470000000089
:104E90002DE9F0411646C1F30A52074688460B46F3
:104EA0006ABB21F00043034327D0354B0022FBF7B8
:104EB00067FE344B07469E42884640DB0B46C1F3F3
:104EC0000A52363A4CF250318E4221DC164440F2FE
:104ED000FE7296421CDC002E28DC16F1350F35DB05
:104EE00023F0FF4121F4E001363641EA0655002265
:104EF00038462946244BFBF743FEBDE8F08140F2DB
:104F0000FF7C6245DED10246FBF720F9BDE8F08167
:104F100017A3D3E900231C464FEAD87565F3DF7465
:104F200021461A48FBF72CFEBDE8F08123F0FF4331
:104F300023F4E003384643EA0651BDE8F0810EA3AE
:104F4000D3E90023FBF71CFEBDE8F08108F0004424
:104F500044F0D27141F4B73107A3D3E900230C48E0
:104F600041F01F01FBF70CFEC7E700BFAFF3008065
:104F70009C7500883CE4377E59F3F8C21F6EA5018A
:104F800000005043B03CFFFF0000903C9C7500883F
:104F900059F3F8C2D0B506460F461446FFF7C6F8D7
:104FA0000346394630461C60D0BD00BF10B50446EC
:104FB0001946104682B00CB103F10043CDE900233D
:104FC000DDE90023FBF7DCFD222202B0BDE8104042
:104FD000FFF7E0BF00224FF08053FFF7E7BF00BFAD
:104FE00000224FF0E043FFF7E1BF00BF2DE9F84F8B
:104FF000724F04468F430D4600F0B28000290B46E5
:105000000646024655DD081500F09B80C3F31303E6
:10501000C107A0F2FF3743F4801303D4D10F01EB93
:1050200043035200002616244FF40011B4465B00DF
:1050300003EBD2737F1052000CEB0100984203DCAB
:105040001B1A01EB000C0E445B00013C03EBD27316
:105050004FEA51014FEA4202EED120254FF00040C5
:10506000A0460AE039D0590001EBD271013D0B4650
:105070004FEA42024FEA50003BD09C4508EB000E3D
:10508000F0DABEF1000F0EEB00080CDBE146A3EBFB
:105090000C01CC46964588BF01F1FF314900A2EBD7
:1050A0000E020444E0E7B8F1000FEFDB0CF1010958
:1050B000EDE721F0004707433DD0002973D1D10A25
:1050C000153B52050029FAD0CD02184616460B466C
:1050D00037D520244FF0FF313EE0964502D94FEA04
:1050E0004C01C1E7BEF1000F0EEB000825DB0021EB
:1050F000D5E7114312D0DFF8C8A0DFF8C8B0DAE96D
:105100000001DBE90023FBF71FF8DAE9008902461A
:105110000B4640464946FBF7AFFF58BB6508F20710
:1051200048BF45F000452846731003F17F5303F54F
:10513000001303EB0751BDE8F88FB8F1000FB5DAA3
:10514000D5E700225B00DC02114602F10102F9D52D
:10515000C2F1200406FA02F2E640401A334355E752
:1051600002460B46FBF70CFD22462B46FAF7EEFFF4
:10517000BDE8F88FB4F1FF3FDAE90001DBE9002375
:1051800018D0DAE90089FAF7E1FF02460B464046FB
:105190004946FBF767FF78B1A11C04F1020508BF7F
:1051A00001366D08BBE7FAF7CFFF02460B46FBF767
:1051B00011FEC0E70136B2E70134AFE70000F07F2F
:1051C0004001002038010020F8B500BFF8BC08BC41
:1051D0009E467047F8B500BFF8BC08BC9E467047B5
:1051E0003F065B4F666D7D077F6F0000000000008B
:1051F000010203040000000000000000010203049B
:1052000006070809030406080C10182030000000E7
:08521000D0EBFF7F010000005C
:085218003942000805110008ED
:04522000E110000891
:1052240068FF1F00010000001000000010000020B3
:105234000000000050020020B802002020030020DB
:10524400000000000000000000000000000000005A
:10525400000000000000000000000000000000004A
:10526400000000000000000000000000000000003A
:10527400000000000000000000000000000000002A
:10528400000000000000000000000000000000001A
:10529400000000000000000000000000000000000A
:1052A40000000000000000000000000000000000FA
:1052B40000000000000000000000000000000000EA
:1052C40000000000000000000100000000000000D9
:1052D4000E33CDAB34126DE6ECDE05000B0000009E
:1052E40000000000000000000000000000000000BA
:1052F40000000000000000000000000000000000AA
:105304000000000000000000000000000000000099
:105314000000000000000000000000000000000089
:105324000000000000000000000000000000000079
:105334000000000000000000000000000000000069
:105344000000000000000000000000000000000059
:10535400880300200000000059F3F8C21F6EA50165
:08536400000000000000F03F12
:0400000508001C11C2
:00000001FF
