:020000040800F2
:1000000000800020F9040008DD040008DF04000877
:10001000E1040008E3040008E50400080000000013
:10002000000000000000000000000000E7040008DD
:10003000E904000800000000EB040008ED040008DB
:100040004105000841050008410500084105000878
:100050004105000841050008410500084105000868
:100060004105000841050008410500084105000858
:100070004105000841050008410500084105000848
:100080004105000841050008410500084105000838
:100090004105000841050008410500084105000828
:1000A0004105000841050008410500084105000818
:1000B0004105000841050008410500084105000808
:1000C00041050008410500084105000841050008F8
:1000D00041050008410500084105000841050008E8
:1000E00041050008410500084105000841050008D8
:1000F0004105000800000000410500084105000816
:100100000000000000000000410500084105000853
:1001100041050008410500084105000800000000F5
:100120004105000800000000000000000000000081
:0C01300000000000000000005FF808F173
:10013C0053B94AB9002908BF00281CBF4FF0FF3142
:10014C004FF0FF3000F00CB8ADF1080C6DE904CEA7
:10015C0001F0ACF9DDF804E0DDE9022304B07047EE
:10016C00704700BF10B5054C237833B9044B13B15D
:10017C000448AFF300800123237010BD1000002051
:10018C00000000001819000808B5034B1BB1034907
:10019C000348AFF3008008BD0000000014000020ED
:1001AC0018190008F0B589B0002403940494059440
:1001BC00069407941E4BDA6942F00402DA61DA699C
:1001CC0002F004020092009ADA6942F00102DA614C
:1001DC00DA6902F001020192019ADA6942F0020234
:1001EC00DA61DB6903F002030293029B114F224692
:1001FC000121384600F050FB0F4E22464FF480711F
:10020C00304600F049FB01250395049505940694AE
:10021C0003A9384600F058FA4FF480730393049501
:10022C000594069403A9304600F04EFA09B0F0BDCF
:10023C0000380240000802400004024072B6FEE79B
:10024C0008B51048104B03600023436083600C22F8
:10025C00C260036143614FF440628261C3617022EA
:10026C00026203638362C36200F0DAFB40B90548A3
:10027C000268536843F00103536000F0BBFB08BDF8
:10028C00FFF7DCFF2C0000200024004000B597B0E5
:10029C003422002109A801F05FFA0023049305938E
:1002AC0006930793089301930293039319490A68E1
:1002BC0022F4C05242F400620A6018220992012210
:1002CC000E920F9210934FF420421192129309A8A0
:1002DC0000F06AFCB8B90F23049300210591069134
:1002EC000791089104A800F02FFF70B90323019324
:1002FC004FF400330293039301A801F00BF830B9CB
:10030C0017B05DF804FBFFF799FFFFF797FFFFF7B6
:10031C0095FF00BF0070004038B500F035F9FFF7CD
:10032C00B5FFFFF73FFFFFF78BFF00242DE00133F4
:10033C009C42FCDC224D4FF0FF331A4621462846E6
:10034C0000F0B0FA284600F0F2FA4FF47A7000F0A0
:10035C003DF9284600F011FB00220121194800F05C
:10036C009BFA01224FF48071174800F095FA002592
:10037C00AC421BDC124800F0DAFA0234634204F09F
:10038C00070403F0070358BF5C424FF47A7000F087
:10039C001DF9012211460B4800F07EFA00224FF4A1
:1003AC008071094800F078FA0023C1E700234FF070
:1003BC00FF322946024800F075FA0135D8E700BF34
:1003CC002C000020000802400004024084B00F4BB7
:1003DC005A6A42F000425A625A6A02F00042019292
:1003EC00019A1A6A42F001021A621A6A02F00102B8
:1003FC000292029A5A6A42F080525A625B6A03F085
:10040C0080530393039B04B0704700BF0038024035
:10041C0070B58AB00023059306930793089309934C
:10042C000268274B9A4201D00AB070BD03F5053320
:10043C005A6A42F400725A625A6A02F400720192C9
:10044C00019ADA6942F00102DA61DA6902F001021A
:10045C000292029ADA6942F00402DA61DA6902F075
:10046C0004020392039ADA6942F00202DA61DB6950
:10047C0003F002030493049B40F20C7305930226D1
:10048C0006960B25099505A90E4800F01DF94FF4A9
:10049C007C7305930696002407940894099505A986
:1004AC00094800F011F94FF20323059306960794BF
:1004BC000894099505A9054800F006F9B4E700BFB2
:1004CC0000240040000002400008024000040240EA
:1004DC00FEE7FEE7FEE7FEE7FEE770477047704772
:1004EC0008B500F061F808BD70470000FFF7FCFF8D
:1004FC000B480C490C4A002302E0D458C450043376
:10050C00C4188C42F9D3094A094C002301E013604A
:10051C000432A242FBD301F06FF9FFF7FDFE7047E6
:10052C0000000020100000206019000810000020BE
:10053C0004020020FEE70000104B1B680BB90120E1
:10054C00704710B504464FF47A70B0FBF3F30C4AC5
:10055C001068B0FBF3F000F0A3F868B90F2C01D9C8
:10056C0001200AE0002221464FF0FF3000F088F80D
:10057C00044B1C60002000E0012010BD0400002092
:10058C00000000200800002010B5032000F066F8E1
:10059C000F20FFF7D1FF10B10124204610BD0446F7
:1005AC00FFF714FFF9E70000034A136803490968D1
:1005BC000B441360704700BF68000020040000204B
:1005CC00014B1868704700BF6800002038B504461E
:1005DC00FFF7F6FF0546B4F1FF3F02D0044B1B6852
:1005EC001C44FFF7EDFF401BA042FAD338BD00BFFF
:1005FC0004000020002808DB0901C9B200F16040AA
:10060C0000F5614080F80013704700F00F000901FD
:10061C00C9B2014B1954704714ED00E000B500F05D
:10062C000700C0F1070CBCF1040F28BF4FF0040CFD
:10063C00031D062B0FD9C31E4FF0FF3E0EFA0CF014
:10064C0021EA000199400EFA03FE22EA0E0241EA69
:10065C0002005DF804FB0023EEE70000074AD368B4
:10066C0023F4E0631B041B0C000200F4E060034362
:10067C0043F0BF6343F40033D360704700ED00E0F8
:10068C0010B50446054BD868C0F30220FFF7C6FF2F
:10069C0001462046FFF7AEFF10BD00BF00ED00E0A5
:1006AC000138B0F1807F0BD24FF0E0235861054A3E
:1006BC00F02182F823100020986107221A617047FC
:1006CC000120704700ED00E070B582B0002365E0BA
:1006DC0085685E000324B44025EA0405CC68B44068
:1006EC002C438460456825EA0C054C68C4F300145F
:1006FC009C402C43446062E0DD08083550F82540EE
:10070C0003F0070C4FEA8C0C4FF00F0E0EFA0CFE98
:10071C0024EA0E0E0C6904FA0CF444EA0E0440F8B8
:10072C00254063E0042400E0002404FA0EF42C437A
:10073C000CF1020C544D45F82C40544CA568D44394
:10074C0025EA0206D1F804C01CF4801F01D042EA4D
:10075C0005064E4DAE60ED6804EA0506D1F804C0FE
:10076C001CF4001F01D042EA0506484DEE606D688E
:10077C0004EA0506D1F804C01CF4003F01D042EA9B
:10078C000506424D6E602D682C404E6816F4803F75
:10079C0001D042EA05043D4A146001330A6832FA7A
:1007AC0003F46FD04FF0010C0CFA03FC1CEA0202AC
:1007BC00F3D04C6804F00304013C012C88D94C683C
:1007CC0004F00304032C0CD0C4685D004FF0030C40
:1007DC000CFA05FC24EA0C0C8C68AC4044EA0C04C2
:1007EC00C4604C6804F00304022C85D004684FEA02
:1007FC00430E4FF0030C0CFA0EFC24EA0C0C4C6864
:10080C0004F0030404FA0EF444EA0C0404604C688B
:10081C0014F4403FC1D01E4C256A45F001052562F9
:10082C00246A04F001040194019C4FEA930C0CF12E
:10083C000205154C54F8255003F0030E4FEA8E0EAA
:10084C000F2404FA0EF425EA0405124CA0423FF4DE
:10085C006BAF04F58064A0420ED004F58064A04216
:10086C000CD004F58064A0420AD004F58064A04248
:10087C003FF458AF052458E7012456E7022454E707
:10088C00032452E702B070BD000001400004014097
:10089C0000380240000002400AB18161704709042F
:1008AC00816170472DE9F84304460E4690461F4679
:1008BC0090F83530DBB2012B04D090F83530DBB238
:1008CC00022B30D194F83530DBB2012B1FD194F8C8
:1008DC003430012B29D0012384F83430022384F8DE
:1008EC003530FFF76DFE814623689D6815F0040FC7
:1008FC000DD0FFF765FEA0EB0900B0F57A7FF3D9B8
:10090C000223A363002384F83430032009E0226817
:10091C00043602EB8602536803EA08033B43536038
:10092C000020BDE8F8830120FBE70220F9E738B589
:10093C00044603680822DA600268936843F00403F3
:10094C009360FFF73DFE054623689B6813F0080F84
:10095C000CD1FFF735FE401BB0F57A7FF4D9042398
:10096C00A363002384F83430032005E0012384F8CA
:10097C003530002084F8340038BD38B5044690F882
:10098C003530DBB2012B04D090F83530DBB2022BC2
:10099C002CD194F83430012B2AD0012384F8343034
:1009AC00022384F83530FFF70BFE054623689B685D
:1009BC0013F0040313D0FFF703FE431BB3F57A7F48
:1009CC00F4D90223A363002384F8343003200EE00F
:1009DC002268191D02EB81020021516001330F2B9B
:1009EC00F6D92046FFF7A3FF002000E0012038BD18
:1009FC000220FCE738B50446FFF7E2FD0546236804
:100A0C009B6813F0200F09D1FFF7DAFD401BB0F5FE
:100A1C007A7FF4D90123A363032000E0002038BDC2
:100A2C00002876D038B5044690F835304BB1022307
:100A3C0084F835302268136823F001031360002317
:100A4C000CE080F83430FFF7E3FCF0E72268191D66
:100A5C0002EB8102002151600133DBB20F2BF5D97F
:100A6C002268936843F00403936021684A686FF32B
:100A7C0019126368A0680343A06A0343E06A034346
:100A8C00E0690343206A0343A0690343606A03439C
:100A9C0013434B602046FFF7ADFF21680A6822F034
:100AAC00FE02E3682069034360690343206B034340
:100ABC0013430B602268136843F001031360FFF7C4
:100ACC007FFD054623689B6813F0010F09D1FFF7E2
:100ADC0077FD401BB0F57A7FF4D90823A36303207C
:100AEC0038BDFFF76DFD054623689B6813F0100FAA
:100AFC0009D1FFF765FD401BB0F57A7FF4D91023BF
:100B0C00A3630320ECE70020A063012384F83530B5
:100B1C00E6E701207047000010B483B01F4B9B68C0
:100B2C0013F0F00328D11D4A526A12F0805F10D0E6
:100B3C001B4A126802F4C052B2F5C05F1DD1B0F569
:100B4C00404F1AD1174A136843F004031360012372
:100B5C0013E012494A6A42F080524A624A6A02F031
:100B6C0080520192019A0E4A126802F4C0524C6AE9
:100B7C0024F080544C62DFE700230A490A6822F013
:100B8C0001021A430A600A6802F001029A4203D178
:100B9C00002003B010BC70470120FAE70038024077
:100BAC0000700040003C0240002800F05E82F0B56E
:100BBC0083B00446A24B9D6805F00C059E6806F4B4
:100BCC008036036813F0010F1DD0082D12D00C2DA8
:100BDC000ED06368012B35D0002B49D1984B1A6885
:100BEC0022F480321A601A6822F480221A602EE0F5
:100BFC00002EEED0924B1B6813F4003F03D06368B9
:100C0C00002B00F03482236813F0020F68D0042DFF
:100C1C0055D00C2D51D0E368002B00F0C780894BC8
:100C2C0001221A60FFF7CCFC0646854B1B6813F0BB
:100C3C00020F40F0B280FFF7C3FC801B0228F4D9EE
:100C4C0003201DE27E4A136843F48033136063680B
:100C5C0023B3FFF7B5FC0746794B1B6813F4003F31
:100C6C00D1D1FFF7ADFCC01B6428F5D9032007E2F6
:100C7C00052B09D0724B1A6822F480321A601A685C
:100C8C0022F480221A60E2E76D4B1A6842F480224B
:100C9C001A601A6842F480321A60D8E7FFF790FCA9
:100CAC000746674B1B6813F4003FACD0FFF788FC7A
:100CBC00C01B6428F5D90320E2E1002EABD1604BB8
:100CCC001B6813F0020F03D0E368012B40F0D181B5
:100CDC005B4A536823F4F853216943EA01235360B8
:100CEC00236813F0100F3BD0002D40F08580544B3F
:100CFC001B6813F4007F03D0A369002B00F0BB81A9
:100D0C00206A4F4B5B6803F46043984260D9FFF74D
:100D1C0003FF002840F0B181494A536823F4604333
:100D2C00216A0B435360536823F07F43E16943EA24
:100D3C0001635360236A5B0B5A1C4FF400439340CE
:100D4C003F4A9268C2F303123F498A5CD3403F4A40
:100D5C0013603F4B1868FFF7EFFB002840F09081C1
:100D6C00236813F0080F00F09B806369002B00F0E0
:100D7C008480344B0122C3F88026FFF721FC064601
:100D8C002F4B5B6B13F0020F40F08A80FFF718FCBF
:100D9C00801B0228F4D9032072E1294A536823F4FA
:100DAC00F853216943EA0123536099E7254B00224C
:100DBC001A60FFF705FC0646214B1B6813F0020F67
:100DCC008ED0FFF7FDFB801B0228F5D9032057E1DD
:100DDC001B4A536823F4604318435060536823F054
:100DEC007F43E16943EA01635360206AFFF794FE95
:100DFC0000289FD0012043E1A3695BB3114B012272
:100E0C001A62FFF7DDFB06460D4B1B6813F4007FDF
:100E1C0006D1FFF7D5FB801B0228F5D903202FE163
:100E2C00074A536823F46043216A0B4353605368A9
:100E3C0023F07F43E16943EA0163536090E700BF0D
:100E4C000038024000004742301900080000002022
:100E5C00080000208F4B00221A62FFF7B1FB0646F8
:100E6C008D4B1B6813F4007F3FF47AAFFFF7A8FBA0
:100E7C00801B0228F4D9032002E1864B0022C3F820
:100E8C008026FFF79DFB0646834B5B6B13F0020F2E
:100E9C0006D0FFF795FB801B0228F5D90320EFE065
:100EAC00236813F0040F79D07B4B5B6A13F0805FDF
:100EBC000BD1794B5A6A42F080525A625B6A03F04A
:100ECC0080530193019B012600E00026734B1B68A5
:100EDC0013F4807F0ED0A368012B1FD0002B35D1CB
:100EEC006D4B5A6B22F480725A635A6B22F48062F7
:100EFC005A6318E0694A136843F480731360FFF770
:100F0C005FFB0746654B1B6813F4807FE3D1FFF74B
:100F1C0057FBC01B6428F5D90320B1E05E4A536B24
:100F2C0043F480735363A36833B3FFF749FB07465D
:100F3C00594B5B6B13F4007F2FD1FFF741FBC01BA8
:100F4C0041F288339842F3D9032099E0052B09D05C
:100F5C00514B5A6B22F480725A635A6B22F48062A2
:100F6C005A63E0E74C4B5A6B42F480625A635A6BFB
:100F7C0042F480725A63D6E7FFF722FB0746464BD2
:100F8C005B6B13F4007F08D0FFF71AFBC01B41F218
:100F9C0088339842F3D9032072E0C6B9636A002BF8
:100FAC006DD00C2D4CD0022B17D03A4B00221A6668
:100FBC00FFF706FB0446384B1B6813F0007F3DD04F
:100FCC00FFF7FEFA001B0228F5D9032058E0324A3D
:100FDC00536A23F080535362E0E72E4B00221A66CB
:100FEC00FFF7EEFA05462C4B1B6813F0007F06D07A
:100FFC00FFF7E6FA401B0228F5D9032040E026490A
:10100C008B6823F47D03A26AE06A0243206B0243DF
:10101C0013438B601F4B01221A66FFF7D1FA04466B
:10102C001D4B1B6813F0007F06D1FFF7C9FA001B9C
:10103C000228F5D9032023E0002021E000201FE046
:10104C00012B1FD0144B9B6803F48031A26A914290
:10105C001AD103F47012E16A8A4217D103F44003E7
:10106C00226B934214D100200AE00120704701202A
:10107C0006E0012004E0012002E0012000E0002055
:10108C0003B0F0BD0120FBE70120F9E70120F7E7F1
:10109C000120F5E700004742003802400070004094
:1010AC0008B5254B9A6802F00C03082B40D00C2B8A
:1010BC000AD0042B3ED0204B5B68C3F34233013380
:1010CC004FF40040984008BDC2F383431B49C85CF1
:1010DC00C2F381520132184B9B6813F4803F06D047
:1010EC0017490023A0FB0101FFF722F8EBE74FEAB9
:1010FC00401CBCEB000C6EEB0E0E4FEA8E1343EA59
:10110C009C634FEA8C11B1EB0C0163EB0E03DB001B
:10111C0043EA5173C90011EB000C43F1000399022F
:10112C0000234FEA8C2041EA9C51FFF701F8CAE7F3
:10113C000348C8E70348C6E70038024040190008D6
:10114C0000366E010024F400002800F0D18070B548
:10115C000C4605466A4B1B6803F001038B420DD20B
:10116C00012928D0664A136823F001032343136036
:10117C00136803F00103A34240F0BC802B6813F00A
:10118C00020F06D05F4A936823F0F003A9680B4363
:10119C0093602B6813F0010F72D06B68022B10D088
:1011AC00032B32D0012B37D0564A126812F4007F31
:1011BC000DD101209BE0524A136843F004031360E5
:1011CC00D0E7504A126812F4003F00F095804D4968
:1011DC008A6822F0030213438B60FFF7F1F906468D
:1011EC006B68022B1FD0032B2CD0012B39D0454B15
:1011FC009B6813F00C0F43D0FFF7E2F9801B41F210
:10120C0088339842F3D9032071E03E4A126812F0F9
:10121C00007FDCD101206AE03A4A126812F0020F1A
:10122C00D5D1012063E0374B9B6803F00C03082BEE
:10123C0026D0FFF7C5F9831B41F288329342F2D9CD
:10124C00032054E02F4B9B6803F00C030C2B17D09E
:10125C00FFF7B6F9801B41F288339842F2D903208C
:10126C0045E0284B9B6803F00C03042B08D0FFF7D8
:10127C00A7F9801B41F288339842F2D9032036E05B
:10128C001F4B1B6803F00103A3420AD91C4A1368C5
:10129C0023F0010323431360136803F00103A342FB
:1012AC002CD12B6813F0040F06D0164A936823F444
:1012BC00E063E9680B4393602B6813F0080F07D0C9
:1012CC00104A936823F46053296943EAC10393607D
:1012DC00FFF7E6FE0B4B9B68C3F303130A4AD35C80
:1012EC00D8400A4B18600A4B1868FFF725F970BDF7
:1012FC00012070470120FAE70120F8E70120F6E70A
:10130C00003C024000380240301900080000002068
:10131C000800002070B582B0036813F0030F00F0D2
:10132C00BA8004465E4B5B6A13F0805F6DD15C4BF8
:10133C005A6A42F080525A625B6A03F080530193FE
:10134C00019B0125574B1B6813F4807F5FD0544BD6
:10135C001B6803F0C043626802F0C04199426AD036
:10136C0002F44033B3F5403F6BD04D4B5B6B13F441
:10137C0040331FD002F440329A4203D0226812F05C
:10138C00010F08D1A26802F440329A4212D02368AD
:10139C0013F0020F0ED0424A536B23F440304249F3
:1013AC000126C1F8DC660026C1F8DC66506313F434
:1013BC00807F4DD1236813F0020F0CD0A36803F487
:1013CC004032B2F5403F54D035494B6BA26802F421
:1013DC00403213434B63236813F0010F0CD0636846
:1013EC0003F44032B2F5403F4CD02D494B6B626850
:1013FC0002F4403213434B63012D4DD1284A536AFA
:10140C0023F080535362002546E000259AE7254AD5
:10141C00136843F480731360FFF7D2F80646214B30
:10142C001B6813F4807F92D1FFF7CAF8801B6428E5
:10143C00F5D9032530E0A16801F0C04199428FD164
:10144C0093E7174B1B6813F4003F8ED0012523E064
:10145C00FFF7B6F80646124B5B6B13F4007FA9D16D
:10146C00FFF7AEF8801B41F288339842F3D903257D
:10147C0012E00B490A6822F0C04203F0C043134348
:10148C000B60A1E706490A6822F0C04203F0C04392
:10149C0013430B60A9E70025284602B070BD00BFBE
:1014AC000038024000700040000047422DE9F04730
:1014BC0086468C460846154674461946089E002BEF
:1014CC0040F0C2808542B2FA82F245D94AB1C2F1EB
:1014DC00200300FA02FC2EFA03F3954043EA0C0CAD
:1014EC0094404FEA154EBCFBFEF8A8B20EFB18CC8C
:1014FC0008FB00F9230C43EA0C43994528D9EB1857
:10150C0008F1FF3704D2994502D9A8F102072B4400
:10151C00A3EB0903B3FBFEFC0EFB1C330CFB00F02E
:10152C00A4B244EA0344A04214D92C190CF1FF33A1
:10153C0004D2A04202D9ACF102032C44241A43EA8F
:10154C0007401EB10023D44034607360BDE8F087BF
:10155C004746DDE76346F1E792BB0121431B4FEAA7
:10156C00154EB3FBFEFCAFB20EFB1C330CFB07F8A5
:10157C00200C40EA0343984562D9EB180CF1FF307C
:10158C0004D2984502D9ACF102002B44A3EB08031A
:10159C00B3FBFEFC0EFB1C330CFB07F7A4B244EAB6
:1015AC000344A7424ED92C190CF1FF3304D2A742A5
:1015BC0002D9ACF102032C44E41B43EA0040C0E71F
:1015CC00C2F12003954020FA03F12EFA03F34FEAFF
:1015DC00154EB1FBFEFC90400343AFB20EFB1C104A
:1015EC000CFB07F8190C41EA0041884504FA02F497
:1015FC0022D969180CF1FF3004D2884502D9ACF11C
:10160C0002002944A1EB0801B1FBFEFC0EFB1C11EE
:10161C000CFB07F79BB243EA01439F420ED9EB1830
:10162C000CF1FF3104D29F4202D9ACF102012B44E0
:10163C00DB1B41EA004192E76046E3E76146F7E7CE
:10164C006046A3E76346B7E7834206D916B9002183
:10165C0008467BE7C6E900E0F9E7B3FA83F78FB9F0
:10166C00834201D3724508D8BEEB020460EB03033E
:10167C0001209C461EB9002168E73846FAE7C6E906
:10168C00004CF8E7C7F1200CBB4022FA0CF41C43C9
:10169C004FEA144920FA0CF3B3FBF9F8B8402EFAD0
:1016AC000CF101430EFA07F509FB18301FFA84FE02
:1016BC0008FB0EFA0B0C43EA00439A4502FA07F2B8
:1016CC0040D9E31808F1FF3004D29A4502D9A8F1A9
:1016DC0002002344A3EB0A03B3FBF9F809FB18330C
:1016EC0008FB0EFE89B241EA03418E452CD96118E4
:1016FC0008F1FF3304D28E4502D9A8F1020321442C
:10170C0043EA0040A0FB0298A1EB0E014145CE46F6
:10171C00434602D306D14D4504D2B9EB020E68EB19
:10172C0004030138002EA6D0B5EB0E0261EB0301C9
:10173C0001FA0CFC22FA07F34CEA0303F940C6E960
:10174C00003198E74046C5E74346D9E700230146F8
:10175C001A46184600F090B870B5860747D0541E4C
:10176C00002A3ED00346CAB201E0013C39D303F84B
:10177C00012B9D07F9D1032C2CD9CDB205EB0525F6
:10178C000F2C1A4605EB054534D9A4F1100C2CF09E
:10179C000F0603F1100EB6444FEA1C1C1560556081
:1017AC009560D56010327245F8D10CF1010214F03D
:1017BC000C0F03EB021204F00F0C13D0ACF104036A
:1017CC0023F003030433134442F8045B9A42FBD125
:1017DC000CF003042CB1C9B21C4403F8011B9C424D
:1017EC00FBD170BD64461346002CF4D1F9E70346D7
:1017FC001446C0E7A446E1E770B50F4B0F4DAB4262
:10180C00A3EB050607D00024B61055F8043B0134B1
:10181C009847A642F9D800F079F8094D094B5E1BA0
:10182C00AB424FEAA60606D0002455F8043B01341F
:10183C009847A642F9D870BD5419000854190008ED
:10184C00541900085C19000838B5074D074C2C1BBF
:10185C00A41005D0013C55F8043D9847002CF9D153
:10186C00BDE8384000F058B8601900085C19000851
:10187C00704700BF704700BF2DE9F8431B4D06466B
:10188C00286898460F469146FFF7F2FF184B1C68E4
:10189C001CB3286865681F2D22DC4EB96B1C023501
:1018AC00636044F82570FFF7E5FF0020BDE8F8837E
:1018BC00012304EB8501C1F88890D4F88821AB4052
:1018CC001A43022EC4F88821C1F80881E6D1D4F855
:1018DC008C211A43C4F88C21E0E7064C1C60D8E735
:1018EC00FFF7C8FF4FF0FF30E0E700BF0C0000200F
:1018FC000002002070000020024B13B10248FFF7D9
:10190C0025BF70470000000055180008F8B500BF4F
:10191C00F8BC08BC9E467047F8B500BFF8BC08BCC4
:04192C009E4670471C
:10193000000000000000000001020304060708097F
:0C194000030406080C1018203000000002
:08194C006CFBFF7F01000000AD
:081954000519000895010008C7
:04195C00710100080D
:1019600068FF1F0001000000100000006C00002054
:04000005080004F9F2
:00000001FF
