:020000040800F2
:100000000080002001080008D1070008D30700087D
:10001000D5070008D7070008D9070008000000002E
:10002000000000000000000000000000DB070008E6
:10003000DD07000800000000DF070008E1070008F6
:10004000490800084908000849080008490800084C
:100050004908000849080008E9070008F3070008F4
:10006000490800084908000849080008490800082C
:10007000490800084908000849080008490800081C
:10008000490800084908000849080008490800080C
:1000900049080008490800084908000849080008FC
:1000A00049080008490800084908000849080008EC
:1000B00049080008490800084908000849080008DC
:1000C00049080008490800084908000849080008CC
:1000D00049080008490800084908000849080008BC
:1000E00049080008490800084908000849080008AC
:1000F00049080008000000004908000849080008F5
:10010000000000000000000049080008490800083D
:1001100049080008490800084908000800000000D4
:100120004908000800000000000000000000000076
:0C01300000000000000000005FF808F173
:10013C0053B94AB9002908BF00281CBF4FF0FF3142
:10014C004FF0FF3000F00CB8ADF1080C6DE904CEA7
:10015C0002F018F9DDF804E0DDE9022304B0704781
:10016C00704700BF10B5054C237833B9044B13B15D
:10017C000448AFF300800123237010BD1000002051
:10018C0000000000F027000808B5034B1BB1034921
:10019C000348AFF3008008BD0000000014000020ED
:1001AC00F027000810B584B0044600238DF80F30FA
:1001BC006423009301230DF10F029021006801F0DC
:1001CC0057F8F0B964230093022303AA9021206806
:1001DC0001F00AF9C0B99DF80C209DF90C30002BE8
:1001EC0006DB9DF80D3043EA02235B11A38009E086
:1001FC009DF80D3043EA0223A3F580335B11A380F5
:10020C0000E0FF2004B010BDFF20FBE7400000F031
:10021C00FE00704708B5006801F064FA08BD38B5F7
:10022C000446012905D0022906D0E1B9172505237A
:10023C0004E006250C2301E00F251823032A15D909
:10024C0000231946043AD0B2022801D91D460846AB
:10025C00FFF7DCFF01460123AB404FF0FF32204695
:10026C00FFF7D8FF38BD00252B46E7E71146E9E735
:10027C00092A15D8F8B506460F461546002400E0A5
:10028C000134062C0BDC074B5B5D234113F0010F93
:10029C00F6D0E2B239463046FFF7C1FFF0E7F8BDC1
:1002AC00704700BF08280008F8B506460D1E2BDB6A
:1002BC00ADB2B5F57A7F31D201272B4AA2FB0532BC
:1002CC00C2F34F12C2EB422402EB8404C2EBC4040F
:1002DC00A400A4B22C44A4B2632D2CD897B3234A07
:1002EC00A2FB0432D208C2EB4235C2EB85056D008D
:1002FC00ADB22544ADB2092C2AD87FB3EAB20021A5
:10030C003046FFF7B5FFF8BD4FF080634FF0FF327A
:10031C000221FFF77FFF6D42ADB2CAE74FF00073C9
:10032C004FF0FF3200213046FFF774FFA5F57A75C8
:10033C00ADB20027C1E7D2B202213046FFF798FFD9
:10034C000027CCE7D2B202213046FFF791FFC6E777
:10035C00D2B201213046FFF78BFFCFE7D2B2012199
:10036C003046FFF785FFC9E71F85EB51CDCCCCCCD0
:10037C0038B505461446FFF797FF012C00D038BD61
:10038C0040234FF0FF3206212846FFF743FFF6E7E4
:10039C00F0B58BB000240594069407940894099446
:1003AC00304BDA6942F00402DA61DA6902F00402D5
:1003BC000192019ADA6942F02002DA61DA6902F0FC
:1003CC0020020292029ADA6942F00102DA61DA69D9
:1003DC0002F001020392039ADA6942F00202DA6136
:1003EC00DB6903F002030493049B1F4F2246012197
:1003FC00384600F0E3FB1D4E22464FF48071304628
:10040C0000F0DCFB0125059506950794089405A9D9
:10041C00384600F0EBFA032305934FF48813069348
:10042C00079505A9124800F0E1FA4FF48073059383
:10043C0006950794089405A9304600F0D7FA224691
:10044C002146062000F0A0FA062000F0ADFA224664
:10045C002146072000F098FA072000F0A5FA0BB00F
:10046C00F0BD00BF0038024000080240000402400A
:10047C000000024038B504460D4604234FF0FF320D
:10048C000021FFF7C7FE4FF480434FF0FF320221EB
:10049C002046FFF7BFFE012229462046FFF768FFE2
:1004AC0038BD000010B50446012802D0022C06D03D
:1004BC0010BD4FF48071044800F086FBF6E7012173
:1004CC00024800F081FBF3E7000402400008024000
:1004DC0072B6FEE708B51048104B0360002343606A
:1004EC0083600C22C260036143614FF440628261FD
:1004FC00C3617022026203638362C36201F0B0F9CC
:10050C0040B905480268536843F00103536001F099
:10051C0091F908BDFFF7DCFF2C00002000240040FF
:10052C0008B50A480A4B03600A4B436000238360FA
:10053C00C3604FF48042026143618361C361036213
:10054C0000F0B8FD00B908BDFFF7C2FF680000203D
:10055C0000540040A086010000B597B03422002161
:10056C0009A802F065F800230493059306930793FA
:10057C00089301930293039318490A6822F4C0521A
:10058C0042F400620A600522099201220A920B923F
:10059C00129309A801F044FAC8B90F23049302235B
:1005AC0005939023069300210791089104A801F06C
:1005BC0021FD70B9032301934FF48033029303930D
:1005CC0001A801F013FE30B917B05DF804FBFFF77A
:1005DC007FFFFFF77DFFFFF77BFF00BF0070004040
:1005EC0030B583B000F054F9FFF7B6FFFFF7D0FE3B
:1005FC00FFF770FFFFF794FF134B144A1A60144B6C
:10060C00019300241048FFF7CDFDE0B9104D2846AA
:10061C0001F0D3F80C4BB3F9041001A8FFF72AFF33
:10062C00284601F0A4F8C82000F054F94FF480716A
:10063C00084800F0C9FA0134142CE3DD0121084606
:10064C0001F08AF9DEE7FEE7BC000020680000201C
:10065C002C0000200004024084B00F4B5A6A42F078
:10066C0000425A625A6A02F000420192019A1A6AD6
:10067C0042F001021A621A6A02F001020292029A14
:10068C005A6A42F080525A625B6A03F080530393B9
:10069C00039B04B0704700BF0038024010B588B00F
:1006AC000023039304930593069307930268124B5C
:1006BC009A4201D008B010BD104CE36943F002031C
:1006CC00E361E36903F002030193019BC0230393ED
:1006DC0012230493032306930423079303A90848C6
:1006EC0000F084F9636A43F400136362636A03F4F1
:1006FC0000130293029BDDE70054004000380240D7
:10070C000004024070B58AB000230593069307934A
:10071C00089309930268274B9A4201D00AB070BD26
:10072C0003F505335A6A42F400725A625A6A02F4AB
:10073C0000720192019ADA6942F00102DA61DA6917
:10074C0002F001020292029ADA6942F00402DA61C2
:10075C00DA6902F004020392039ADA6942F00202A7
:10076C00DA61DB6903F002030493049B40F20C731F
:10077C000593022606960B25099505A90E4800F04F
:10078C0035F94FF47C73059306960024079408946E
:10079C00099505A9094800F029F94FF2032305939F
:1007AC00069607940894099505A9054800F01EF9CA
:1007BC00B4E700BF002400400000024000080240E3
:1007CC0000040240FEE7FEE7FEE7FEE7FEE77047A7
:1007DC007047704708B500F06BF808BD08B50120EC
:1007EC0000F0FCF908BD08B5022000F0F7F908BDCF
:1007FC0070470000FFF7FCFF0B480C490C4A002324
:10080C0002E0D458C4500433C4188C42F9D3094ABA
:10081C00094C002301E013600432A242FBD301F027
:10082C0057FFFFF7DDFE704700000020100000208E
:10083C004C2800081000002060020020FEE7000099
:10084C00104B1B680BB90120704710B504464FF4D0
:10085C007A70B0FBF3F30C4A1068B0FBF3F000F0C5
:10086C00B1F868B90F2C01D901200AE00022214609
:10087C004FF0FF3000F088F8044B1C60002000E0C3
:10088C00012010BD04000020000000200800002002
:10089C0010B5032000F066F80F20FFF7D1FF10B160
:1008AC000124204610BD0446FFF7D6FEF9E70000F0
:1008BC00034A1368034909680B441360704700BF6F
:1008CC00C400002004000020014B1868704700BFD2
:1008DC00C400002038B50446FFF7F6FF0546B4F116
:1008EC00FF3F02D0044B1B681C44FFF7EDFF401B7D
:1008FC00A042FAD338BD00BF04000020002808DB5A
:10090C000901C9B200F1604000F5614080F80013A4
:10091C00704700F00F000901C9B2014B1954704720
:10092C0014ED00E000B500F00700C0F1070CBCF1BD
:10093C00040F28BF4FF0040C031D062B0FD9C31E48
:10094C004FF0FF3E0EFA0CF021EA000199400EFA2E
:10095C0003FE22EA0E0241EA02005DF804FB0023CA
:10096C00EEE70000074AD36823F4E0631B041B0C7A
:10097C00000200F4E060034343F0BF6343F4003330
:10098C00D360704700ED00E010B50446054BD86805
:10099C00C0F30220FFF7C6FF01462046FFF7AEFF6B
:1009AC0010BD00BF00ED00E0002807DB00F01F02C7
:1009BC00400901239340024A42F82030704700BF9F
:1009CC0000E100E00138B0F1807F0BD24FF0E02362
:1009DC005861054AF02182F8231000209861072203
:1009EC001A6170470120704700ED00E070B582B0CD
:1009FC00002365E085685E000324B44025EA040505
:100A0C00CC68B4402C438460456825EA0C054C68DE
:100A1C00C4F300149C402C43446062E0DD080835AC
:100A2C0050F8254003F0070C4FEA8C0C4FF00F0EDA
:100A3C000EFA0CFE24EA0E0E0C6904FA0CF444EACD
:100A4C000E0440F8254063E0042400E0002404FA7E
:100A5C000EF42C430CF1020C544D45F82C40544C24
:100A6C00A568D44325EA0206D1F804C01CF4801F03
:100A7C0001D042EA05064E4DAE60ED6804EA05066B
:100A8C00D1F804C01CF4001F01D042EA0506484D01
:100A9C00EE606D6804EA0506D1F804C01CF4003F52
:100AAC0001D042EA0506424D6E602D682C404E681E
:100ABC0016F4803F01D042EA05043D4A146001332C
:100ACC000A6832FA03F46FD04FF0010C0CFA03FCF5
:100ADC001CEA0202F3D04C6804F00304013C012C24
:100AEC0088D94C6804F00304032C0CD0C4685D0056
:100AFC004FF0030C0CFA05FC24EA0C0C8C68AC408F
:100B0C0044EA0C04C4604C6804F00304022C85D045
:100B1C0004684FEA430E4FF0030C0CFA0EFC24EA67
:100B2C000C0C4C6804F0030404FA0EF444EA0C04B4
:100B3C0004604C6814F4403FC1D01E4C256A45F04B
:100B4C0001052562246A04F001040194019C4FEA1A
:100B5C00930C0CF10205154C54F8255003F0030EC0
:100B6C004FEA8E0E0F2404FA0EF425EA0405124CFB
:100B7C00A0423FF46BAF04F58064A0420ED004F5A4
:100B8C008064A0420CD004F58064A0420AD004F525
:100B9C008064A0423FF458AF052458E7012456E77F
:100BAC00022454E7032452E702B070BD0000014058
:100BBC000004014000380240000002400AB181618B
:100BCC007047090481617047436901EA030221EA15
:100BDC00030141EA024181617047000008B5054BF1
:100BEC005B69034200D108BD024B5861FFF75AFC08
:100BFC00F9E700BF0004014003685A6912F4806FE2
:100C0C0001D1002070476FF480625A6100230363A6
:100C1C00202280F83D2080F83E30026C42F0040225
:100C2C00026480F83C30012070472DE9F041064603
:100C3C000C46174698463BE0FFF746FE069BC01A4B
:100C4C00404502D8B8F1000F32D1012D18D03368CD
:100C5C009B6924EA03039BB2B3FA83F35B099F42BB
:100C6C0026D100233363202286F83D2086F83E30BF
:100C7C00326C42F02002326486F83C30012027E0CE
:100C8C0033685B6924EA03039BB2B3FA83F35B0911
:100C9C00E5E733685B6924EA030C1FFA8CFCBCFAA9
:100CAC008CFC4FEA5C1C674511D1B8F1FF3FC3D1F6
:100CBC00C4F30745012DECD033689B6924EA030C7F
:100CCC001FFA8CFCBCFA8CFC4FEA5C1CEBE7002096
:100CDC00BDE8F0812DE9F84305460E46904699464D
:100CEC0053E01A6842F400721A602B686FF4806249
:100CFC005A6100232B63202285F83D2085F83E3075
:100D0C002A6C42F004022A6485F83C3001204AE047
:100D1C00FFF7DAFDA0EB0900404502D8B8F1000F4F
:100D2C0033D1012F17D02B689B6926EA03039BB2A2
:100D3C00003B18BF012343B300232B63202285F80B
:100D4C003D2085F83E302A6C42F020022A6485F85A
:100D5C003C30012027E02B685B6926EA03039BB239
:100D6C00003B18BF0123E6E72B689C6926EA0404C4
:100D7C00A4B2003C18BF0124A4B12B685A6912F428
:100D8C00806FAED1B8F1FF3FC2D1C6F30747012F38
:100D9C00EAD12B685C6926EA0404A4B2003C18BFB3
:100DAC000124E9E70020BDE8F8830000F0B583B02A
:100DBC0004460D4616461F46C36A082B0DD0012B60
:100DCC000BD013F5803F08D0036B122B0AD10268AD
:100DDC00136843F48073136004E02268136843F4CF
:100DEC00807313600097334600224FF001112046A8
:100DFC00FFF71BFF80B92369B3F5804F16D1236829
:100E0C0005F0FE051D613B46324613492046FFF7AF
:100E1C0061FFF8B903B0F0BD23681B6813F4807F41
:100E2C0002D04FF4007323640320F3E7EB11226824
:100E3C0003F0060343F0F00313613B4632460749C7
:100E4C002046FFF747FF18B92368EDB21D61DAE7BA
:100E5C000120DFE70120DDE70200010008000100AE
:100E6C002DE9F04184B004460D4616461F46C26A71
:100E7C0001680B6843F480630B60082A0DD0012ACB
:100E8C000BD012F5803F08D0036B112B0AD10268EE
:100E9C00136843F48073136004E02268136843F40E
:100EAC00807313600097334600224FF001112046E7
:100EBC00FFF7BBFE98B92369B3F5804F19D12368AE
:100ECC0045F00105EDB21D613B4632462A492046EC
:100EDC00FFF700FF00284CD104B0BDE8F081236877
:100EEC001B6813F4807F02D04FF40073236403203B
:100EFC00F2E74FEAE51808F00608236848F0F0021C
:100F0C001A613B4632461D492046FFF7E3FE08B105
:100F1C000120E1E72368EDB21D613B4632461649DC
:100F2C002046FFF7D7FE08B10120D5E70022039237
:100F3C00236859690391996903910399196841F4DC
:100F4C0080711960009733464FF001112046FFF76E
:100F5C006CFE20B9226848F0F1031361B4E72368F2
:100F6C001B6813F4807F02D04FF4007323640320BA
:100F7C00B2E70120B0E700BF020001000800010049
:100F8C0070B504460D46164623685B6913F0800F56
:100F9C0021D12046FFF730FEF8B9B5F1FF3FF3D071
:100FAC00FFF792FC801BA84201D8002DECD12368DE
:100FBC005B6913F0800FE7D100232363202284F8B0
:100FCC003D2084F83E30226C42F02002226484F8EA
:100FDC003C30012000E0002070BD0120FCE770B522
:100FEC0004460D46164623685B6913F0040F21D1A5
:100FFC002046FFF701FEF8B9B5F1FF3FF3D0FFF73C
:10100C0063FC801BA84201D8002DECD123685B69DE
:10101C0013F0040FE7D100232363202284F83D2032
:10102C0084F83E30226C42F02002226484F83C307A
:10103C00012000E0002070BD0120FCE770B50446E3
:10104C000D46164614E06FF010025A61002323631C
:10105C00202284F83D2084F83E30226C226484F8EF
:10106C003C30012025E023685B6913F0400F10D061
:10107C002368586910F0400F1AD1586910F0100FFE
:10108C00E1D1FFF721FC801BA842ECD8002DEFD159
:10109C00E9E700232363202284F83D2084F83E30C6
:1010AC00226C42F02002226484F83C30012000E0E3
:1010BC00002070BD002800F0CC8070B5044690F87C
:1010CC003D30002B77D0242384F83D302268136800
:1010DC0023F0010313602268136843F40043136088
:1010EC002268136823F40043136001F06FF8626800
:1010FC005A4B9A4264D85A4B98428CBF0023012316
:10110C00002B40F0A8805749A1FB00318B0C2568BF
:10111C006A6822F03F0242EA91426A6021680A6AD8
:10112C0022F03F0266684D4DAE424FD80133134357
:10113C000B622168CA6922F44F4222F0FF026568F3
:10114C00464B9D424CD8431E6D00B3FBF5F3013367
:10115C0040F6FC70034278D0C3F30B031A43CA6108
:10116C0021680B6823F0C003E269206A0243134331
:10117C000B6021688B6823F4034323F0FF0322697F
:10118C00E068024313438B602168CB6823F0FF03B4
:10119C006269A06902431343CB602268136843F071
:1011AC000103136000202064202384F83D30206369
:1011BC0084F83E0070BD80F83C30FFF76FFA82E790
:1011CC00294B98428CBF0023012399E74FF4967565
:1011DC0005FB03F3254DA5FB03539B090133A6E740
:1011EC00A668BEB9431E05EB450CB3FBFCF30133FB
:1011FC00C3F30B03B3FA83F35B0943BBC6B9431EBA
:10120C0005EB4505B3FBF5F30133C3F30B0343F4D3
:10121C000043A3E7431E05EB850C0CEB8C0CB3FBD6
:10122C00FCF30133C3F30B03B3FA83F35B09E4E779
:10123C00431E05EB850505EB8505B3FBF5F3013383
:10124C00C3F30B0343F4404388E7042386E70123ED
:10125C0084E7012070470120ACE700BFA0860100A5
:10126C007F841E0083DE1B43FF083D00D34D6210BC
:10127C002DE9F04385B004460F46914698460C9EE6
:10128C00FFF722FB054694F83D00C0B2202804D09D
:10129C000227384605B0BDE8F083009519230122DA
:1012AC004F492046FFF7C1FC002840F0928094F88B
:1012BC003C30012B00F08F80012384F83C302368F4
:1012CC001A6812F0010F03D11A6842F001021A6079
:1012DC002268136823F400631360212384F83D30E3
:1012EC00102384F83E3000232364C4F82490A4F81F
:1012FC002A80638D23853B4BE3622B46324639466D
:10130C002046FFF753FD0746002866D100230393C0
:10131C0023685A6903929B690393039B11E0236C26
:10132C00042B01D00127B4E72268136843F400733F
:10133C001360F7E72A4631462046FFF750FE002897
:10134C002ED1238D002B36D02A4631462046FFF76E
:10135C0017FE0028E3D1626A236812781A61606A6A
:10136C00431C6362618D89B2013989B26185238D19
:10137C00013B9BB223852268516911F0040FD9D02F
:10138C00002BD7D043781361636A01336362638D9A
:10139C009BB2013B9BB26385238D013B2385C9E73F
:1013AC00236C042B01D0012773E72268136843F4E4
:1013BC0000731360F7E72268136843F4007313603B
:1013CC00202384F83D30002384F83E3084F83C30F0
:1013DC005FE702275DE702275BE7012759E700BFBC
:1013EC00020010000000FFFF2DE9F04387B0044617
:1013FC000F46914698460E9EFFF766FA054694F8FE
:10140C003D00C0B2202804D00227384607B0BDE802
:10141C00F08300951923012289492046FFF705FC2A
:10142C00002840F04F8194F83C30012B00F04C81A7
:10143C00012384F83C3023681A6812F0010F03D1A1
:10144C001A6842F001021A602268136823F40063E0
:10145C001360222384F83D30102384F83E3000239F
:10146C002364C4F82490A4F82A80638D2385754BDB
:10147C00E3622B46324639462046FFF7F1FC07461D
:10148C00002840F02381238D5BB9029323685A69AD
:10149C0002929A690292029A1A6842F400721A60D5
:1014AC007AE0012B0FD0022B1FD02268136843F473
:1014BC00806313600023059323685A6905929B6926
:1014CC000593059B68E02268136823F4806313601E
:1014DC000023039323685A6903929A690392039A2F
:1014EC001A6842F400721A6056E02268136823F4FA
:1014FC00806313602268136843F400631360002355
:10150C00049323685A6904929B690493049B43E0F7
:10151C002A4631462046FFF791FD002840F0D8803E
:10152C0023681A69636A1A70636A01336362238DD4
:10153C00013B2385638D9BB2013B9BB263852BE002
:10154C0000953346002240492046FFF76EFB0028E9
:10155C0040F0C0802268136843F400731360236862
:10156C001A69636A1A70626A531C6362238D013BA9
:10157C002385638D9BB2013B9BB2638523681B69FA
:10158C005370636A01336362238D013B2385638D42
:10159C009BB2013B9BB26385218D002900F08980B1
:1015AC00032953D80129B3D00229C9D00095334659
:1015BC00002225492046FFF738FB002840F08C809C
:1015CC002268136823F48063136023681A69636AC2
:1015DC001A70636A01336362238D013B2385618D2D
:1015EC0089B2013989B261850095334600221649CA
:1015FC002046FFF71AFB002870D12268136843F4C9
:10160C000073136023681A69636A1A70626A531C48
:10161C006362238D013B2385638D9BB2013B9BB29F
:10162C00638523681B695370636A01336362238D7E
:10163C00013B2385638D9BB2013B9BB26385ABE77A
:10164C00020010000000FFFF040001002A46314692
:10165C002046FFF7F3FC002842D123681A69636A1D
:10166C001A70636A01336362228D013A92B2228549
:10167C00638D9BB2013B9BB263852368596911F062
:10168C00040F89D0032A0FD023681A69636A1A7071
:10169C00636A01336362238D013B2385638D9BB2A7
:1016AC00013B9BB2638577E71A6822F480621A606B
:1016BC00EAE7202384F83D30002384F83E3084F898
:1016CC003C30A2E60227A0E602279EE601279CE614
:1016DC0001279AE6012798E6012796E6012794E66A
:1016EC00012792E62DE9F84304460E4690461F4624
:1016FC0090F83530DBB2012B04D090F83530DBB2EA
:10170C00022B30D194F83530DBB2012B1FD194F879
:10171C003430012B29D0012384F83430022384F88F
:10172C003530FFF7D1F8814623689D6815F0040F1A
:10173C000DD0FFF7C9F8A0EB0900B0F57A7FF3D90B
:10174C000223A363002384F83430032009E02268C9
:10175C00043602EB8602536803EA08033B435360EA
:10176C000020BDE8F8830120FBE70220F9E738B53B
:10177C00044603680822DA600268936843F00403A5
:10178C009360FFF7A1F8054623689B6813F0080FD8
:10179C000CD1FFF799F8401BB0F57A7FF4D90423EC
:1017AC00A363002384F83430032005E0012384F87C
:1017BC003530002084F8340038BD38B5044690F834
:1017CC003530DBB2012B04D090F83530DBB2022B74
:1017DC002CD194F83430012B2AD0012384F83430E6
:1017EC00022384F83530FFF76FF8054623689B68B1
:1017FC0013F0040313D0FFF767F8431BB3F57A7F9C
:10180C00F4D90223A363002384F8343003200EE0C0
:10181C002268191D02EB81020021516001330F2B4C
:10182C00F6D92046FFF7A3FF002000E0012038BDC9
:10183C000220FCE738B50446FFF746F80546236856
:10184C009B6813F0200F09D1FFF73EF8401BB0F551
:10185C007A7FF4D90123A363032000E0002038BD74
:10186C00002876D038B5044690F835304BB10223B9
:10187C0084F835302268136823F0010313600023C9
:10188C000CE080F83430FEF73DFFF0E72268191DBC
:10189C0002EB8102002151600133DBB20F2BF5D931
:1018AC002268936843F00403936021684A686FF3DD
:1018BC0019126368A0680343A06A0343E06A0343F8
:1018CC00E0690343206A0343A0690343606A03434E
:1018DC0013434B602046FFF7ADFF21680A6822F0E6
:1018EC00FE02E3682069034360690343206B0343F2
:1018FC0013430B602268136843F001031360FEF777
:10190C00E3FF054623689B6813F0010F09D1FEF72E
:10191C00DBFF401BB0F57A7FF4D90823A3630320C7
:10192C0038BDFEF7D1FF054623689B6813F0100FF6
:10193C0009D1FEF7C9FF401BB0F57A7FF4D910230B
:10194C00A3630320ECE70020A063012384F8353067
:10195C00E6E70120704700000B4A136823F00303ED
:10196C0003431360094A136943F00403136101290B
:10197C0008D040BF20BF20BF044A136923F00403E2
:10198C001361704730BFF7E70070004000ED00E0D6
:10199C0010B483B01F4B9B6813F0F00328D11D4A81
:1019AC00526A12F0805F10D01B4A126802F4C052C7
:1019BC00B2F5C05F1DD1B0F5404F1AD1174A13686C
:1019CC0043F004031360012313E012494A6A42F006
:1019DC0080524A624A6A02F080520192019A0E4A7F
:1019EC00126802F4C0524C6A24F080544C62DFE757
:1019FC0000230A490A6822F001021A430A600A68A5
:101A0C0002F001029A4203D1002003B010BC7047CF
:101A1C000120FAE70038024000700040003C024010
:101A2C00002800F05E82F0B583B00446A24B9D689E
:101A3C0005F00C059E6806F48036036813F0010F60
:101A4C001DD0082D12D00C2D0ED06368012B35D073
:101A5C00002B49D1984B1A6822F480321A601A680C
:101A6C0022F480221A602EE0002EEED0924B1B68DE
:101A7C0013F4003F03D06368002B00F0348223681A
:101A8C0013F0020F68D0042D55D00C2D51D0E36803
:101A9C00002B00F0C780894B01221A60FEF714FF5F
:101AAC000646854B1B6813F0020F40F0B280FEF720
:101ABC000BFF801B0228F4D903201DE27E4A136819
:101ACC0043F480331360636823B3FEF7FDFE0746CF
:101ADC00794B1B6813F4003FD1D1FEF7F5FEC01B08
:101AEC006428F5D9032007E2052B09D0724B1A683C
:101AFC0022F480321A601A6822F480221A60E2E71B
:101B0C006D4B1A6842F480221A601A6842F48032D3
:101B1C001A60D8E7FEF7D8FE0746674B1B6813F42C
:101B2C00003FACD0FEF7D0FEC01B6428F5D90320D3
:101B3C00E2E1002EABD1604B1B6813F0020F03D017
:101B4C00E368012B40F0D1815B4A536823F4F853CE
:101B5C00216943EA01235360236813F0100F3BD033
:101B6C00002D40F08580544B1B6813F4007F03D08C
:101B7C00A369002B00F0BB81206A4F4B5B6803F418
:101B8C006043984260D9FFF703FF002840F0B18111
:101B9C00494A536823F46043216A0B4353605368EA
:101BAC0023F07F43E16943EA01635360236A5B0BD3
:101BBC005A1C4FF4004393403F4A9268C2F30312FD
:101BCC003F498A5CD3403F4A13603F4B1868FEF78D
:101BDC0037FE002840F09081236813F0080F00F0C6
:101BEC009B806369002B00F08480344B0122C3F886
:101BFC008026FEF769FE06462F4B5B6B13F0020F37
:101C0C0040F08A80FEF760FE801B0228F4D9032086
:101C1C0072E1294A536823F4F853216943EA0123FA
:101C2C00536099E7254B00221A60FEF74DFE0646DD
:101C3C00214B1B6813F0020F8ED0FEF745FE801B64
:101C4C000228F5D9032057E11B4A536823F460435B
:101C5C0018435060536823F07F43E16943EA016302
:101C6C005360206AFFF794FE00289FD0012043E1C7
:101C7C00A3695BB3114B01221A62FEF725FE0646DF
:101C8C000D4B1B6813F4007F06D1FEF71DFE801B65
:101C9C000228F5D903202FE1074A536823F4604347
:101CAC00216A0B435360536823F07F43E16943EA95
:101CBC000163536090E700BF0038024000004742C8
:101CCC001C28000800000020080000208F4B002278
:101CDC001A62FEF7F9FD06468D4B1B6813F4007F64
:101CEC003FF47AAFFEF7F0FD801B0228F4D90320F5
:101CFC0002E1864B0022C3F88026FEF7E5FD06467E
:101D0C00834B5B6B13F0020F06D0FEF7DDFD801BDF
:101D1C000228F5D90320EFE0236813F0040F79D0E3
:101D2C007B4B5B6A13F0805F0BD1794B5A6A42F0A4
:101D3C0080525A625B6A03F080530193019B012627
:101D4C0000E00026734B1B6813F4807F0ED0A36851
:101D5C00012B1FD0002B35D16D4B5A6B22F48072A6
:101D6C005A635A6B22F480625A6318E0694A13680A
:101D7C0043F480731360FEF7A7FD0746654B1B68A1
:101D8C0013F4807FE3D1FEF79FFDC01B6428F5D9C7
:101D9C000320B1E05E4A536B43F480735363A36832
:101DAC0033B3FEF791FD0746594B5B6B13F4007F81
:101DBC002FD1FEF789FDC01B41F288339842F3D92D
:101DCC00032099E0052B09D0514B5A6B22F48072F9
:101DDC005A635A6B22F480625A63E0E74C4B5A6B9D
:101DEC0042F480625A635A6B42F480725A63D6E7AB
:101DFC00FEF76AFD0746464B5B6B13F4007F08D079
:101E0C00FEF762FDC01B41F288339842F3D90320E0
:101E1C0072E0C6B9636A002B6DD00C2D4CD0022B2E
:101E2C0017D03A4B00221A66FEF74EFD0446384B8B
:101E3C001B6813F0007F3DD0FEF746FD001B022807
:101E4C00F5D9032058E0324A536A23F08053536289
:101E5C00E0E72E4B00221A66FEF736FD05462C4BAA
:101E6C001B6813F0007F06D0FEF72EFD401B0228E6
:101E7C00F5D9032040E026498B6823F47D03A26A40
:101E8C00E06A0243206B024313438B601F4B012219
:101E9C001A66FEF719FD04461D4B1B6813F0007FF4
:101EAC0006D1FEF711FD001B0228F5D9032023E013
:101EBC00002021E000201FE0012B1FD0144B9B6859
:101ECC0003F48031A26A91421AD103F47012E16AD0
:101EDC008A4217D103F44003226B934214D10020A1
:101EEC000AE001207047012006E0012004E00120F7
:101EFC0002E0012000E0002003B0F0BD0120FBE770
:101F0C000120F9E70120F7E70120F5E7000047423F
:101F1C00003802400070004008B5324B9A6802F05D
:101F2C000C03082B5AD00C2B0AD0042B58D02D4B59
:101F3C005B68C3F3423301334FF40040984008BD53
:101F4C00C2F383432849C85CC2F381520132254B4A
:101F5C009B6813F4803F20D04FEA401CBCEB000C74
:101F6C006EEB0E0E4FEA8E1343EA9C634FEA8C1114
:101F7C00B1EB0C0163EB0E03DB0043EA5173C900B8
:101F8C0011EB000C43F10003590200234FEA4C20E3
:101F9C0041EADC51FEF7CCF8D1E74FEA401CBCEB30
:101FAC00000C6EEB0E0E4FEA8E1343EA9C634FEA65
:101FBC008C11B1EB0C0163EB0E03DB0043EA5173A4
:101FCC00C90011EB000C43F10003990200234FEA06
:101FDC008C2041EA9C51FEF7ABF8B0E70348AEE722
:101FEC000348ACE7003802402C28000800127A00A5
:101FFC000024F400002800F0D18070B50C46054692
:10200C006A4B1B6803F001038B420DD2012928D0C7
:10201C00664A136823F0010323431360136803F02B
:10202C000103A34240F0BC802B6813F0020F06D0D2
:10203C005F4A936823F0F003A9680B4393602B6805
:10204C0013F0010F72D06B68022B10D0032B32D01F
:10205C00012B37D0564A126812F4007F0DD10120A3
:10206C009BE0524A136843F004031360D0E7504AD4
:10207C00126812F4003F00F095804D498A6822F0F6
:10208C00030213438B60FEF71FFC06466B68022BA2
:10209C001FD0032B2CD0012B39D0454B9B6813F050
:1020AC000C0F43D0FEF710FC801B41F28833984292
:1020BC00F3D9032071E03E4A126812F0007FDCD1A4
:1020CC0001206AE03A4A126812F0020FD5D10120C1
:1020DC0063E0374B9B6803F00C03082B26D0FEF70C
:1020EC00F3FB831B41F288329342F2D9032054E074
:1020FC002F4B9B6803F00C030C2B17D0FEF7E4FB63
:10210C00801B41F288339842F2D9032045E0284BDA
:10211C009B6803F00C03042B08D0FEF7D5FB801B47
:10212C0041F288339842F2D9032036E01F4B1B68EA
:10213C0003F00103A3420AD91C4A136823F00103DC
:10214C0023431360136803F00103A3422CD12B68C3
:10215C0013F0040F06D0164A936823F4E063E96881
:10216C000B4393602B6813F0080F07D0104A936849
:10217C0023F46053296943EAC1039360FFF7CCFE53
:10218C000B4B9B68C3F303130A4AD35CD8400A4B2E
:10219C0018600A4B1868FEF753FB70BD012070479E
:1021AC000120FAE70120F8E70120F6E7003C0240A5
:1021BC00003802401C280008000000200800002005
:1021CC00014B1868704700BF0000002008B5FFF7EE
:1021DC00F7FF044B9B68C3F30223034AD35CD8403C
:1021EC0008BD00BF003802401428000870B582B04A
:1021FC00036813F0030F00F0BA8004465E4B5B6A71
:10220C0013F0805F6DD15C4B5A6A42F080525A6277
:10221C005B6A03F080530193019B0125574B1B68AC
:10222C0013F4807F5FD0544B1B6803F0C04362688B
:10223C0002F0C04199426AD002F44033B3F5403FFA
:10224C006BD04D4B5B6B13F440331FD002F4403218
:10225C009A4203D0226812F0010F08D1A26802F44E
:10226C0040329A4212D0236813F0020F0ED0424A29
:10227C00536B23F4403042490126C1F8DC6600263A
:10228C00C1F8DC66506313F4807F4DD1236813F0E2
:10229C00020F0CD0A36803F44032B2F5403F54D087
:1022AC0035494B6BA26802F4403213434B632368ED
:1022BC0013F0010F0CD0636803F44032B2F5403FC9
:1022CC004CD02D494B6B626802F4403213434B6384
:1022DC00012D4DD1284A536A23F0805353620025B7
:1022EC0046E000259AE7254A136843F4807313608F
:1022FC00FEF7EAFA0646214B1B6813F4807F92D155
:10230C00FEF7E2FA801B6428F5D9032530E0A168BA
:10231C0001F0C04199428FD193E7174B1B6813F41E
:10232C00003F8ED0012523E0FEF7CEFA0646124B75
:10233C005B6B13F4007FA9D1FEF7C6FA801B41F248
:10234C0088339842F3D9032512E00B490A6822F02E
:10235C00C04203F0C04313430B60A1E706490A686F
:10236C0022F0C04203F0C04313430B60A9E70025E1
:10237C00284602B070BD00BF00380240007000401B
:10238C00000047422DE9F04786468C460846154624
:10239C0074461946089E002B40F0C2808542B2FA62
:1023AC0082F245D94AB1C2F1200300FA02FC2EFA9E
:1023BC0003F3954043EA0C0C94404FEA154EBCFBDA
:1023CC00FEF8A8B20EFB18CC08FB00F9230C43EA6C
:1023DC000C43994528D9EB1808F1FF3704D29945DD
:1023EC0002D9A8F102072B44A3EB0903B3FBFEFCB3
:1023FC000EFB1C330CFB00F0A4B244EA0344A042D5
:10240C0014D92C190CF1FF3304D2A04202D9ACF12F
:10241C0002032C44241A43EA07401EB10023D44083
:10242C0034607360BDE8F0874746DDE76346F1E74B
:10243C0092BB0121431B4FEA154EB3FBFEFCAFB21E
:10244C000EFB1C330CFB07F8200C40EA03439845A9
:10245C0062D9EB180CF1FF3004D2984502D9ACF1DB
:10246C0002002B44A3EB0803B3FBFEFC0EFB1C3356
:10247C000CFB07F7A4B244EA0344A7424ED92C192B
:10248C000CF1FF3304D2A74202D9ACF102032C4465
:10249C00E41B43EA0040C0E7C2F12003954020FA58
:1024AC0003F12EFA03F34FEA154EB1FBFEFC9040FC
:1024BC000343AFB20EFB1C100CFB07F8190C41EADE
:1024CC000041884504FA02F422D969180CF1FF3056
:1024DC0004D2884502D9ACF102002944A1EB0801D1
:1024EC00B1FBFEFC0EFB1C110CFB07F79BB243EA85
:1024FC0001439F420ED9EB180CF1FF3104D29F42DD
:10250C0002D9ACF102012B44DB1B41EA004192E7FA
:10251C006046E3E76146F7E76046A3E76346B7E743
:10252C00834206D916B9002108467BE7C6E900E0CC
:10253C00F9E7B3FA83F78FB9834201D3724508D810
:10254C00BEEB020460EB030301209C461EB9002184
:10255C0068E73846FAE7C6E9004CF8E7C7F1200C03
:10256C00BB4022FA0CF41C434FEA144920FA0CF33A
:10257C00B3FBF9F8B8402EFA0CF101430EFA07F54B
:10258C0009FB18301FFA84FE08FB0EFA0B0C43EA09
:10259C0000439A4502FA07F240D9E31808F1FF30DC
:1025AC0004D29A4502D9A8F102002344A3EB0A03F2
:1025BC00B3FBF9F809FB183308FB0EFE89B241EAAC
:1025CC0003418E452CD9611808F1FF3304D28E4596
:1025DC0002D9A8F10203214443EA0040A0FB02986F
:1025EC00A1EB0E014145CE46434602D306D14D45E3
:1025FC0004D2B9EB020E68EB04030138002EA6D00E
:10260C00B5EB0E0261EB030101FA0CFC22FA07F3A5
:10261C004CEA0303F940C6E9003198E74046C5E7A8
:10262C004346D9E7002301461A46184600F090B8F5
:10263C0070B5860747D0541E002A3ED00346CAB256
:10264C0001E0013C39D303F8012B9D07F9D1032C90
:10265C002CD9CDB205EB05250F2C1A4605EB0545FB
:10266C0034D9A4F1100C2CF00F0603F1100EB64463
:10267C004FEA1C1C156055609560D5601032724590
:10268C00F8D10CF1010214F00C0F03EB021204F060
:10269C000F0C13D0ACF1040323F0030304331344E5
:1026AC0042F8045B9A42FBD10CF003042CB1C9B282
:1026BC001C4403F8011B9C42FBD170BD64461346BD
:1026CC00002CF4D1F9E703461446C0E7A446E1E731
:1026DC0070B50F4B0F4DAB42A3EB050607D0002492
:1026EC00B61055F8043B01349847A642F9D800F0CF
:1026FC0079F8094D094B5E1BAB424FEAA60606D092
:10270C00002455F8043B01349847A642F9D870BD13
:10271C0040280008402800084028000848280008E5
:10272C0038B5074D074C2C1BA41005D0013C55F8AF
:10273C00043D9847002CF9D1BDE8384000F058B85A
:10274C004C28000848280008704700BF704700BF9D
:10275C002DE9F8431B4D0646286898460F469146CE
:10276C00FFF7F2FF184B1C681CB3286865681F2D17
:10277C0022DC4EB96B1C0235636044F82570FFF700
:10278C00E5FF0020BDE8F883012304EB8501C1F8C7
:10279C008890D4F88821AB401A43022EC4F88821C3
:1027AC00C1F80881E6D1D4F88C211A43C4F88C21E5
:1027BC00E0E7064C1C60D8E7FFF7C8FF4FF0FF308E
:1027CC00E0E700BF0C0000205C020020CC000020E1
:1027DC00024B13B10248FFF725BF70470000000001
:1027EC002D270008F8B500BFF8BC08BC9E46704702
:0C27FC00F8B500BFF8BC08BC9E46704752
:102808003F065B4F666D7D077F6F0000000000008C
:10281800010203040000000000000000010203049C
:1028280006070809030406080C10182030000000E9
:0828380058FBFF7F01000000C6
:08284000DD27000895010008E6
:042848007101000812
:10284C0068FF1F000100000010000000C8000020FD
:0400000508000801E6
:00000001FF
